{
  "address": "0xDfc1c11060cd894098D04EFdB6e2dE3215c7d085",
  "abi": [
    {
      "inputs": [
        {
          "internalType": "address",
          "name": "hippyGhosts_",
          "type": "address"
        },
        {
          "internalType": "string",
          "name": "baseURI_",
          "type": "string"
        }
      ],
      "stateMutability": "nonpayable",
      "type": "constructor"
    },
    {
      "anonymous": false,
      "inputs": [
        {
          "indexed": true,
          "internalType": "address",
          "name": "previousOwner",
          "type": "address"
        },
        {
          "indexed": true,
          "internalType": "address",
          "name": "newOwner",
          "type": "address"
        }
      ],
      "name": "OwnershipTransferred",
      "type": "event"
    },
    {
      "inputs": [],
      "name": "baseURI",
      "outputs": [
        {
          "internalType": "string",
          "name": "",
          "type": "string"
        }
      ],
      "stateMutability": "view",
      "type": "function"
    },
    {
      "inputs": [],
      "name": "hippyGhosts",
      "outputs": [
        {
          "internalType": "address",
          "name": "",
          "type": "address"
        }
      ],
      "stateMutability": "view",
      "type": "function"
    },
    {
      "inputs": [],
      "name": "owner",
      "outputs": [
        {
          "internalType": "address",
          "name": "",
          "type": "address"
        }
      ],
      "stateMutability": "view",
      "type": "function"
    },
    {
      "inputs": [],
      "name": "renounceOwnership",
      "outputs": [],
      "stateMutability": "nonpayable",
      "type": "function"
    },
    {
      "inputs": [],
      "name": "selfDestruct",
      "outputs": [],
      "stateMutability": "nonpayable",
      "type": "function"
    },
    {
      "inputs": [
        {
          "internalType": "string",
          "name": "baseURI_",
          "type": "string"
        }
      ],
      "name": "setBaseURI",
      "outputs": [],
      "stateMutability": "nonpayable",
      "type": "function"
    },
    {
      "inputs": [
        {
          "internalType": "uint256",
          "name": "tokenId",
          "type": "uint256"
        }
      ],
      "name": "tokenURI",
      "outputs": [
        {
          "internalType": "string",
          "name": "",
          "type": "string"
        }
      ],
      "stateMutability": "view",
      "type": "function"
    },
    {
      "inputs": [
        {
          "internalType": "address",
          "name": "newOwner",
          "type": "address"
        }
      ],
      "name": "transferOwnership",
      "outputs": [],
      "stateMutability": "nonpayable",
      "type": "function"
    }
  ],
  "transactionHash": "0xb92120f70ee580cf3acdfc6d24e138d28b2fc96db3d6a375ff52155db32b28a3",
  "args": [
    "0xdd25c3523c45ad1d2f29a2d883b78e8745d18d46",
    "https://api.hippyghosts.io/~/storage/tokens/test/"
  ],
  "numDeployments": 1,
  "solcInputHash": "38d7e465612a6379ca0c0b5187c526f5",
  "bytecode": "0x60a06040523480156200001157600080fd5b5060405162000bc438038062000bc4833981016040819052620000349162000176565b6200003f336200006a565b6001600160a01b038216608052805162000061906001906020840190620000ba565b505050620002b3565b600080546001600160a01b038381166001600160a01b0319831681178455604051919092169283917f8be0079c531659141344cd1fd0a4f28419497f9722a3daafe3b4186f6b6457e09190a35050565b828054620000c89062000276565b90600052602060002090601f016020900481019282620000ec576000855562000137565b82601f106200010757805160ff191683800117855562000137565b8280016001018555821562000137579182015b82811115620001375782518255916020019190600101906200011a565b506200014592915062000149565b5090565b5b808211156200014557600081556001016200014a565b634e487b7160e01b600052604160045260246000fd5b600080604083850312156200018a57600080fd5b82516001600160a01b0381168114620001a257600080fd5b602084810151919350906001600160401b0380821115620001c257600080fd5b818601915086601f830112620001d757600080fd5b815181811115620001ec57620001ec62000160565b604051601f8201601f19908116603f0116810190838211818310171562000217576200021762000160565b8160405282815289868487010111156200023057600080fd5b600093505b8284101562000254578484018601518185018701529285019262000235565b82841115620002665760008684830101525b8096505050505050509250929050565b600181811c908216806200028b57607f821691505b60208210811415620002ad57634e487b7160e01b600052602260045260246000fd5b50919050565b6080516108f6620002ce600039600060fa01526108f66000f3fe608060405234801561001057600080fd5b50600436106100885760003560e01c80639cb8a26a1161005b5780639cb8a26a146100ed578063b75ffd56146100f5578063c87b56dd1461011c578063f2fde38b1461012f57600080fd5b806355f804b31461008d5780636c0360eb146100a2578063715018a6146100c05780638da5cb5b146100c8575b600080fd5b6100a061009b36600461057c565b610142565b005b6100aa61018c565b6040516100b7919061065d565b60405180910390f35b6100a061021a565b6000546001600160a01b03165b6040516001600160a01b0390911681526020016100b7565b6100a0610250565b6100d57f000000000000000000000000000000000000000000000000000000000000000081565b6100aa61012a366004610690565b61027d565b6100a061013d3660046106a9565b6102dc565b6000546001600160a01b031633146101755760405162461bcd60e51b815260040161016c906106d9565b60405180910390fd5b80516101889060019060208401906104cd565b5050565b600180546101999061070e565b80601f01602080910402602001604051908101604052809291908181526020018280546101c59061070e565b80156102125780601f106101e757610100808354040283529160200191610212565b820191906000526020600020905b8154815290600101906020018083116101f557829003601f168201915b505050505081565b6000546001600160a01b031633146102445760405162461bcd60e51b815260040161016c906106d9565b61024e6000610377565b565b6000546001600160a01b0316331461027a5760405162461bcd60e51b815260040161016c906106d9565b33ff5b606060006001805461028e9061070e565b9050116102aa57604051806020016040528060008152506102d6565b60016102b5836103c7565b6040516020016102c6929190610765565b6040516020818303038152906040525b92915050565b6000546001600160a01b031633146103065760405162461bcd60e51b815260040161016c906106d9565b6001600160a01b03811661036b5760405162461bcd60e51b815260206004820152602660248201527f4f776e61626c653a206e6577206f776e657220697320746865207a65726f206160448201526564647265737360d01b606482015260840161016c565b61037481610377565b50565b600080546001600160a01b038381166001600160a01b0319831681178455604051919092169283917f8be0079c531659141344cd1fd0a4f28419497f9722a3daafe3b4186f6b6457e09190a35050565b6060816103eb5750506040805180820190915260018152600360fc1b602082015290565b8160005b811561041557806103ff81610822565b915061040e9050600a83610853565b91506103ef565b60008167ffffffffffffffff81111561043057610430610566565b6040519080825280601f01601f19166020018201604052801561045a576020820181803683370190505b5090505b84156104c55761046f600183610867565b915061047c600a8661087e565b610487906030610892565b60f81b81838151811061049c5761049c6108aa565b60200101906001600160f81b031916908160001a9053506104be600a86610853565b945061045e565b949350505050565b8280546104d99061070e565b90600052602060002090601f0160209004810192826104fb5760008555610541565b82601f1061051457805160ff1916838001178555610541565b82800160010185558215610541579182015b82811115610541578251825591602001919060010190610526565b5061054d929150610551565b5090565b5b8082111561054d5760008155600101610552565b634e487b7160e01b600052604160045260246000fd5b60006020828403121561058e57600080fd5b813567ffffffffffffffff808211156105a657600080fd5b818401915084601f8301126105ba57600080fd5b8135818111156105cc576105cc610566565b604051601f8201601f19908116603f011681019083821181831017156105f4576105f4610566565b8160405282815287602084870101111561060d57600080fd5b826020860160208301376000928101602001929092525095945050505050565b60005b83811015610648578181015183820152602001610630565b83811115610657576000848401525b50505050565b602081526000825180602084015261067c81604085016020870161062d565b601f01601f19169190910160400192915050565b6000602082840312156106a257600080fd5b5035919050565b6000602082840312156106bb57600080fd5b81356001600160a01b03811681146106d257600080fd5b9392505050565b6020808252818101527f4f776e61626c653a2063616c6c6572206973206e6f7420746865206f776e6572604082015260600190565b600181811c9082168061072257607f821691505b6020821081141561074357634e487b7160e01b600052602260045260246000fd5b50919050565b6000815161075b81856020860161062d565b9290920192915050565b600080845481600182811c91508083168061078157607f831692505b60208084108214156107a157634e487b7160e01b86526022600452602486fd5b8180156107b557600181146107c6576107f3565b60ff198616895284890196506107f3565b60008b81526020902060005b868110156107eb5781548b8201529085019083016107d2565b505084890196505b5050505050506108038185610749565b95945050505050565b634e487b7160e01b600052601160045260246000fd5b60006000198214156108365761083661080c565b5060010190565b634e487b7160e01b600052601260045260246000fd5b6000826108625761086261083d565b500490565b6000828210156108795761087961080c565b500390565b60008261088d5761088d61083d565b500690565b600082198211156108a5576108a561080c565b500190565b634e487b7160e01b600052603260045260246000fdfea2646970667358221220dade02f2cd7263c4e906a3d4c9314f1787b768d2ff397d865caf12f6905a9acf64736f6c634300080b0033",
  "devdoc": {
    "kind": "dev",
    "methods": {
      "owner()": {
        "details": "Returns the address of the current owner."
      },
      "renounceOwnership()": {
        "details": "Leaves the contract without owner. It will not be possible to call `onlyOwner` functions anymore. Can only be called by the current owner. NOTE: Renouncing ownership will leave the contract without an owner, thereby removing any functionality that is only available to the owner."
      },
      "transferOwnership(address)": {
        "details": "Transfers ownership of the contract to a new account (`newOwner`). Can only be called by the current owner."
      }
    },
    "version": 1
  },
  "userdoc": {
    "kind": "user",
    "methods": {},
    "version": 1
  },
  "storageLayout": {
    "storage": [
      {
        "astId": 7,
        "contract": "src/HippyGhostsRenderer.sol:HippyGhostsRenderer",
        "label": "_owner",
        "offset": 0,
        "slot": "0",
        "type": "t_address"
      },
      {
        "astId": 2305,
        "contract": "src/HippyGhostsRenderer.sol:HippyGhostsRenderer",
        "label": "baseURI",
        "offset": 0,
        "slot": "1",
        "type": "t_string_storage"
      }
    ],
    "types": {
      "t_address": {
        "encoding": "inplace",
        "label": "address",
        "numberOfBytes": "20"
      },
      "t_string_storage": {
        "encoding": "bytes",
        "label": "string",
        "numberOfBytes": "32"
      }
    }
  }
}