{
  "address": "0x0a8035213E1aF19ba8B98ff4Dc9d98d35f50007b",
  "abi": [
    {
      "inputs": [
        {
          "internalType": "address",
          "name": "hippyGhosts_",
          "type": "address"
        },
        {
          "internalType": "address",
          "name": "verificationAddress_",
          "type": "address"
        }
      ],
      "stateMutability": "nonpayable",
      "type": "constructor"
    },
    {
      "anonymous": false,
      "inputs": [
        {
          "indexed": true,
          "internalType": "address",
          "name": "claimer",
          "type": "address"
        },
        {
          "indexed": true,
          "internalType": "address",
          "name": "mintKey",
          "type": "address"
        },
        {
          "indexed": false,
          "internalType": "uint256",
          "name": "numberOfTokens",
          "type": "uint256"
        }
      ],
      "name": "MintKeyClaimed",
      "type": "event"
    },
    {
      "anonymous": false,
      "inputs": [
        {
          "indexed": true,
          "internalType": "address",
          "name": "previousOwner",
          "type": "address"
        },
        {
          "indexed": true,
          "internalType": "address",
          "name": "newOwner",
          "type": "address"
        }
      ],
      "name": "OwnershipTransferred",
      "type": "event"
    },
    {
      "inputs": [],
      "name": "EPOCH_BLOCKS",
      "outputs": [
        {
          "internalType": "uint256",
          "name": "",
          "type": "uint256"
        }
      ],
      "stateMutability": "view",
      "type": "function"
    },
    {
      "inputs": [],
      "name": "GHOSTS_PER_EPOCH",
      "outputs": [
        {
          "internalType": "uint256",
          "name": "",
          "type": "uint256"
        }
      ],
      "stateMutability": "view",
      "type": "function"
    },
    {
      "inputs": [],
      "name": "MAX_GHOSTS_PER_MINT",
      "outputs": [
        {
          "internalType": "uint256",
          "name": "",
          "type": "uint256"
        }
      ],
      "stateMutability": "view",
      "type": "function"
    },
    {
      "inputs": [],
      "name": "MAX_OWNER_MINT_COUNT",
      "outputs": [
        {
          "internalType": "uint256",
          "name": "",
          "type": "uint256"
        }
      ],
      "stateMutability": "view",
      "type": "function"
    },
    {
      "inputs": [],
      "name": "MAX_PRIVATE_MINT_INDEX",
      "outputs": [
        {
          "internalType": "uint256",
          "name": "",
          "type": "uint256"
        }
      ],
      "stateMutability": "view",
      "type": "function"
    },
    {
      "inputs": [],
      "name": "MAX_PUBLIC_MINT_INDEX",
      "outputs": [
        {
          "internalType": "uint256",
          "name": "",
          "type": "uint256"
        }
      ],
      "stateMutability": "view",
      "type": "function"
    },
    {
      "inputs": [],
      "name": "availableForPublicMint",
      "outputs": [
        {
          "internalType": "uint256",
          "name": "",
          "type": "uint256"
        }
      ],
      "stateMutability": "view",
      "type": "function"
    },
    {
      "inputs": [],
      "name": "currentEpoch",
      "outputs": [
        {
          "internalType": "uint256",
          "name": "",
          "type": "uint256"
        }
      ],
      "stateMutability": "view",
      "type": "function"
    },
    {
      "inputs": [
        {
          "internalType": "uint256",
          "name": "tokenId",
          "type": "uint256"
        }
      ],
      "name": "epochOfToken",
      "outputs": [
        {
          "internalType": "uint256",
          "name": "",
          "type": "uint256"
        }
      ],
      "stateMutability": "view",
      "type": "function"
    },
    {
      "inputs": [],
      "name": "hippyGhosts",
      "outputs": [
        {
          "internalType": "address",
          "name": "",
          "type": "address"
        }
      ],
      "stateMutability": "view",
      "type": "function"
    },
    {
      "inputs": [
        {
          "internalType": "address",
          "name": "mintKey",
          "type": "address"
        }
      ],
      "name": "isMintKeyClaimed",
      "outputs": [
        {
          "internalType": "bool",
          "name": "",
          "type": "bool"
        }
      ],
      "stateMutability": "view",
      "type": "function"
    },
    {
      "inputs": [
        {
          "internalType": "uint256",
          "name": "numberOfTokens",
          "type": "uint256"
        }
      ],
      "name": "mint",
      "outputs": [],
      "stateMutability": "payable",
      "type": "function"
    },
    {
      "inputs": [
        {
          "internalType": "uint256",
          "name": "numberOfTokens",
          "type": "uint256"
        },
        {
          "internalType": "uint256",
          "name": "valueInWei",
          "type": "uint256"
        },
        {
          "internalType": "address",
          "name": "mintKey",
          "type": "address"
        },
        {
          "internalType": "bytes",
          "name": "signature",
          "type": "bytes"
        }
      ],
      "name": "mintWithSignature",
      "outputs": [],
      "stateMutability": "payable",
      "type": "function"
    },
    {
      "inputs": [],
      "name": "owner",
      "outputs": [
        {
          "internalType": "address",
          "name": "",
          "type": "address"
        }
      ],
      "stateMutability": "view",
      "type": "function"
    },
    {
      "inputs": [
        {
          "internalType": "address[]",
          "name": "addresses",
          "type": "address[]"
        },
        {
          "internalType": "uint256[]",
          "name": "tokenIds",
          "type": "uint256[]"
        }
      ],
      "name": "ownerMint",
      "outputs": [],
      "stateMutability": "nonpayable",
      "type": "function"
    },
    {
      "inputs": [],
      "name": "ownerMintCount",
      "outputs": [
        {
          "internalType": "uint256",
          "name": "",
          "type": "uint256"
        }
      ],
      "stateMutability": "view",
      "type": "function"
    },
    {
      "inputs": [
        {
          "internalType": "uint256",
          "name": "_currentEpoch",
          "type": "uint256"
        },
        {
          "internalType": "uint256",
          "name": "_tokenEpoch",
          "type": "uint256"
        }
      ],
      "name": "priceForTokenId",
      "outputs": [
        {
          "internalType": "uint256",
          "name": "",
          "type": "uint256"
        }
      ],
      "stateMutability": "view",
      "type": "function"
    },
    {
      "inputs": [
        {
          "internalType": "uint256",
          "name": "tokenId",
          "type": "uint256"
        }
      ],
      "name": "priceForTokenId",
      "outputs": [
        {
          "internalType": "uint256",
          "name": "",
          "type": "uint256"
        }
      ],
      "stateMutability": "view",
      "type": "function"
    },
    {
      "inputs": [],
      "name": "privateMintIndex",
      "outputs": [
        {
          "internalType": "uint256",
          "name": "",
          "type": "uint256"
        }
      ],
      "stateMutability": "view",
      "type": "function"
    },
    {
      "inputs": [],
      "name": "publicMintIndex",
      "outputs": [
        {
          "internalType": "uint256",
          "name": "",
          "type": "uint256"
        }
      ],
      "stateMutability": "view",
      "type": "function"
    },
    {
      "inputs": [],
      "name": "publicMintPriceDecay",
      "outputs": [
        {
          "internalType": "uint256",
          "name": "",
          "type": "uint256"
        }
      ],
      "stateMutability": "view",
      "type": "function"
    },
    {
      "inputs": [],
      "name": "publicMintPriceLower",
      "outputs": [
        {
          "internalType": "uint256",
          "name": "",
          "type": "uint256"
        }
      ],
      "stateMutability": "view",
      "type": "function"
    },
    {
      "inputs": [],
      "name": "publicMintPriceUpper",
      "outputs": [
        {
          "internalType": "uint256",
          "name": "",
          "type": "uint256"
        }
      ],
      "stateMutability": "view",
      "type": "function"
    },
    {
      "inputs": [],
      "name": "publicMintStartBlock",
      "outputs": [
        {
          "internalType": "uint256",
          "name": "",
          "type": "uint256"
        }
      ],
      "stateMutability": "view",
      "type": "function"
    },
    {
      "inputs": [],
      "name": "renounceOwnership",
      "outputs": [],
      "stateMutability": "nonpayable",
      "type": "function"
    },
    {
      "inputs": [],
      "name": "selfDestruct",
      "outputs": [],
      "stateMutability": "nonpayable",
      "type": "function"
    },
    {
      "inputs": [
        {
          "internalType": "uint256",
          "name": "publicMintStartBlock_",
          "type": "uint256"
        }
      ],
      "name": "setPublicMintStartBlock",
      "outputs": [],
      "stateMutability": "nonpayable",
      "type": "function"
    },
    {
      "inputs": [
        {
          "internalType": "address",
          "name": "verificationAddress_",
          "type": "address"
        }
      ],
      "name": "setVerificationAddress",
      "outputs": [],
      "stateMutability": "nonpayable",
      "type": "function"
    },
    {
      "inputs": [
        {
          "internalType": "address",
          "name": "newOwner",
          "type": "address"
        }
      ],
      "name": "transferOwnership",
      "outputs": [],
      "stateMutability": "nonpayable",
      "type": "function"
    },
    {
      "inputs": [],
      "name": "verificationAddress",
      "outputs": [
        {
          "internalType": "address",
          "name": "",
          "type": "address"
        }
      ],
      "stateMutability": "view",
      "type": "function"
    },
    {
      "inputs": [],
      "name": "withdraw",
      "outputs": [],
      "stateMutability": "nonpayable",
      "type": "function"
    },
    {
      "inputs": [
        {
          "internalType": "contract IERC20",
          "name": "token",
          "type": "address"
        }
      ],
      "name": "withdrawTokens",
      "outputs": [],
      "stateMutability": "nonpayable",
      "type": "function"
    },
    {
      "stateMutability": "payable",
      "type": "receive"
    }
  ],
  "transactionHash": "0x9091c172c4a764a6e4f926e07e69dbb915ebbf12666f0f755040c35b96c25e56",
  "args": [
    "0xdd25c3523c45ad1d2f29a2d883b78e8745d18d46",
    "0x976f61940624C8EeA0F7D2E8852F3F7E32d25E26"
  ],
  "numDeployments": 1,
  "solcInputHash": "38d7e465612a6379ca0c0b5187c526f5",
  "bytecode": "0x60a060405267011c37937e080000600155668e1bc9bf040000600255662386f26fc100006003556000600455619c4060055561012c600655600060075560b46008556105dc6009553480156200005457600080fd5b5060405162001b9738038062001b97833981016040819052620000779162000118565b6200008233620000ab565b6001600160a01b03918216608052600a80546001600160a01b0319169190921617905562000150565b600080546001600160a01b038381166001600160a01b0319831681178455604051919092169283917f8be0079c531659141344cd1fd0a4f28419497f9722a3daafe3b4186f6b6457e09190a35050565b80516001600160a01b03811681146200011357600080fd5b919050565b600080604083850312156200012c57600080fd5b6200013783620000fb565b91506200014760208401620000fb565b90509250929050565b608051611a1662000181600039600081816104ef0152818161090e01528181610c0b0152610ed60152611a166000f3fe6080604052600436106101e75760003560e01c80638dda4c9011610102578063ae3c87be11610095578063cfd15bbd11610064578063cfd15bbd14610511578063e9d899c614610527578063f2fde38b14610547578063fce531df1461056757600080fd5b8063ae3c87be1461049b578063af2a541d146104b1578063afad7c6a146104c7578063b75ffd56146104dd57600080fd5b8063a0712d68116100d1578063a0712d6814610416578063a13bfd6514610429578063a3e04e401461043c578063ab5d5ea21461045257600080fd5b80638dda4c90146103b5578063934dc749146103cb5780639bb4fc45146103eb5780639cb8a26a1461040157600080fd5b806369f7d2f21161017a578063766718081161014957806376671808146103345780638429c96614610349578063871ee4951461035f5780638da5cb5b1461039757600080fd5b806369f7d2f2146102d4578063715018a6146102f457806373f73a6e1461030957806374c259c61461031e57600080fd5b8063417ffa83116101b6578063417ffa831461026857806349df728c146102885780634dc64fb6146102a8578063637b2d6c146102be57600080fd5b806306959429146101f357806307c7903b14610215578063137edaa01461023d5780633ccfd60b1461025357600080fd5b366101ee57005b600080fd5b3480156101ff57600080fd5b5061021361020e36600461162f565b610587565b005b34801561022157600080fd5b5061022a6105dc565b6040519081526020015b60405180910390f35b34801561024957600080fd5b5061022a60075481565b34801561025f57600080fd5b50610213610641565b34801561027457600080fd5b5061022a61028336600461164c565b61069e565b34801561029457600080fd5b506102136102a336600461162f565b61072f565b3480156102b457600080fd5b5061022a60025481565b3480156102ca57600080fd5b5061022a6105dc81565b3480156102e057600080fd5b506102136102ef3660046116b3565b61083d565b34801561030057600080fd5b506102136109f5565b34801561031557600080fd5b5061022a600a81565b34801561032a57600080fd5b5061022a60055481565b34801561034057600080fd5b5061022a610a2b565b34801561035557600080fd5b5061022a60085481565b34801561036b57600080fd5b50600a5461037f906001600160a01b031681565b6040516001600160a01b039091168152602001610234565b3480156103a357600080fd5b506000546001600160a01b031661037f565b3480156103c157600080fd5b5061022a60035481565b3480156103d757600080fd5b5061022a6103e636600461171f565b610a7a565b3480156103f757600080fd5b5061022a60045481565b34801561040d57600080fd5b50610213610a96565b61021361042436600461171f565b610ac3565b61021361043736600461174e565b610cc3565b34801561044857600080fd5b5061022a60015481565b34801561045e57600080fd5b5061048b61046d36600461162f565b6001600160a01b03166000908152600b602052604090205460ff1690565b6040519015158152602001610234565b3480156104a757600080fd5b5061022a61012c81565b3480156104bd57600080fd5b5061022a60095481565b3480156104d357600080fd5b5061022a61270f81565b3480156104e957600080fd5b5061037f7f000000000000000000000000000000000000000000000000000000000000000081565b34801561051d57600080fd5b5061022a60065481565b34801561053357600080fd5b5061022a61054236600461171f565b610f91565b34801561055357600080fd5b5061021361056236600461162f565b61100b565b34801561057357600080fd5b5061021361058236600461171f565b6110a6565b6000546001600160a01b031633146105ba5760405162461bcd60e51b81526004016105b190611825565b60405180910390fd5b600a80546001600160a01b0319166001600160a01b0392909216919091179055565b6000806105e7610a2b565b6006546105f49190611870565b90506106046105dc61270f61188f565b81111561061c576106196105dc61270f61188f565b90505b60006105dc60095461062e919061188f565b905061063a818361188f565b9250505090565b6000546001600160a01b0316331461066b5760405162461bcd60e51b81526004016105b190611825565b6040514790339082156108fc029083906000818181858888f1935050505015801561069a573d6000803e3d6000fd5b5050565b6000818310156106f05760405162461bcd60e51b815260206004820152601860248201527f5461726765742065706f6368206973206e6f74206f70656e000000000000000060448201526064016105b1565b600354600090610700848661188f565b61070a9190611870565b600154610717919061188f565b905060025481101561072857506002545b9392505050565b6000546001600160a01b031633146107595760405162461bcd60e51b81526004016105b190611825565b6040516370a0823160e01b81523060048201526000906001600160a01b038316906370a0823190602401602060405180830381865afa1580156107a0573d6000803e3d6000fd5b505050506040513d601f19601f820116820180604052508101906107c491906118a6565b60405163a9059cbb60e01b8152336004820152602481018290529091506001600160a01b0383169063a9059cbb906044016020604051808303816000875af1158015610814573d6000803e3d6000fd5b505050506040513d601f19601f8201168201806040525081019061083891906118bf565b505050565b6000546001600160a01b031633146108675760405162461bcd60e51b81526004016105b190611825565b6007546108759082906118e1565b600781905561012c101561089b5760405162461bcd60e51b81526004016105b1906118f9565b60005b818110156109ee576105dc8383838181106108bb576108bb61193c565b90506020020135111561090c5760405162461bcd60e51b8152602060048201526019602482015278125b98dbdc9c9958dd081d1bdad95b9259081d1bc81b5a5b9d603a1b60448201526064016105b1565b7f00000000000000000000000000000000000000000000000000000000000000006001600160a01b03166340c10f1986868481811061094d5761094d61193c565b9050602002016020810190610962919061162f565b8585858181106109745761097461193c565b6040516001600160e01b031960e087901b1681526001600160a01b0390941660048501526020029190910135602483015250604401600060405180830381600087803b1580156109c357600080fd5b505af11580156109d7573d6000803e3d6000fd5b5050505080806109e690611952565b91505061089e565b5050505050565b6000546001600160a01b03163314610a1f5760405162461bcd60e51b81526004016105b190611825565b610a296000611137565b565b600060045460001480610a3f575060045443105b15610a4a5750600090565b600060055460045443610a5d919061188f565b610a67919061196d565b9050610a748160016118e1565b91505090565b6000610a90610a87610a2b565b61028384610f91565b92915050565b6000546001600160a01b03163314610ac05760405162461bcd60e51b81526004016105b190611825565b33ff5b6000610acd610a2b565b905060008111610b1f5760405162461bcd60e51b815260206004820152601760248201527f5075626c69632073616c65206973206e6f74206f70656e00000000000000000060448201526064016105b1565b600a821115610b705760405162461bcd60e51b815260206004820152601960248201527f4d61782067686f73747320746f206d696e742069732074656e0000000000000060448201526064016105b1565b61270f82600954610b8191906118e1565b1115610b9f5760405162461bcd60e51b81526004016105b1906118f9565b346000805b84811015610c845780600954610bba91906118e1565b610bc59060016118e1565b91506000610bd283610f91565b90506000610be0868361069e565b9050610bec818661188f565b6040516340c10f1960e01b8152336004820152602481018690529095507f00000000000000000000000000000000000000000000000000000000000000006001600160a01b0316906340c10f1990604401600060405180830381600087803b158015610c5757600080fd5b505af1158015610c6b573d6000803e3d6000fd5b5050505050508080610c7c90611952565b915050610ba4565b5060098190558115610cbd57604051339083156108fc029084906000818181858888f193505050501580156109ee573d6000803e3d6000fd5b50505050565b348314610d125760405162461bcd60e51b815260206004820152601a60248201527f496e636f72726563742065746865722076616c75652073656e7400000000000060448201526064016105b1565b6001600160a01b0382166000908152600b602052604090205460ff1615610d7b5760405162461bcd60e51b815260206004820152601860248201527f4d696e74206b657920616c726561647920636c61696d6564000000000000000060448201526064016105b1565b6040516bffffffffffffffffffffffff1933606090811b82166020840152603483018790526054830186905284811b8216607484015230901b166088820152610de490609c0160408051601f19818403018152919052600a5483906001600160a01b0316611187565b6001600160a01b0382166000818152600b602052604090819020805460ff191660011790555133907f7199211527ef146af6ac7c4a9d44fb290d7a4e6a2c164effe334f1944bd551f490610e3b9088815260200190565b60405180910390a360005b848110156109ee57600060605b81610f7c57600854610e669060016118e1565b60088190556105dc1015610eb85760405162461bcd60e51b8152602060048201526019602482015278125b98dbdc9c9958dd081d1bdad95b9259081d1bc81b5a5b9d603a1b60448201526064016105b1565b60085460405133602482015260448101919091526001600160a01b037f0000000000000000000000000000000000000000000000000000000000000000169060640160408051601f198184030181529181526020820180516001600160e01b03166340c10f1960e01b17905251610f2f919061198f565b6000604051808303816000865af19150503d8060008114610f6c576040519150601f19603f3d011682016040523d82523d6000602084013e610f71565b606091505b509092509050610e53565b50508080610f8990611952565b915050610e46565b60006105dc8211610fd65760405162461bcd60e51b815260206004820152600f60248201526e125b9d985b1a59081d1bdad95b9259608a1b60448201526064016105b1565b6006546000906001610fea6105dc8661188f565b610ff4919061188f565b610ffe919061196d565b90506107288160016118e1565b6000546001600160a01b031633146110355760405162461bcd60e51b81526004016105b190611825565b6001600160a01b03811661109a5760405162461bcd60e51b815260206004820152602660248201527f4f776e61626c653a206e6577206f776e657220697320746865207a65726f206160448201526564647265737360d01b60648201526084016105b1565b6110a381611137565b50565b6000546001600160a01b031633146110d05760405162461bcd60e51b81526004016105b190611825565b600454156111325760405162461bcd60e51b815260206004820152602960248201527f7075626c69634d696e745374617274426c6f636b2068617320616c7265616479604482015268081899595b881cd95d60ba1b60648201526084016105b1565b600455565b600080546001600160a01b038381166001600160a01b0319831681178455604051919092169283917f8be0079c531659141344cd1fd0a4f28419497f9722a3daafe3b4186f6b6457e09190a35050565b6001600160a01b0381166111e95760405162461bcd60e51b8152602060048201526024808201527f766572696669636174696f6e2061646472657373206e6f7420696e697469616c6044820152631a5e995960e21b60648201526084016105b1565b806001600160a01b031661125b8361125586805190602001206040517f19457468657265756d205369676e6564204d6573736167653a0a3332000000006020820152603c8101829052600090605c01604051602081830303815290604052805190602001209050919050565b906112a5565b6001600160a01b0316146108385760405162461bcd60e51b81526020600482015260116024820152701cda59db985d1d5c99481a5b9d985b1a59607a1b60448201526064016105b1565b60008060006112b485856112c9565b915091506112c181611339565b509392505050565b6000808251604114156113005760208301516040840151606085015160001a6112f4878285856114f4565b94509450505050611332565b82516040141561132a576020830151604084015161131f8683836115e1565b935093505050611332565b506000905060025b9250929050565b600081600481111561134d5761134d6119ca565b14156113565750565b600181600481111561136a5761136a6119ca565b14156113b85760405162461bcd60e51b815260206004820152601860248201527f45434453413a20696e76616c6964207369676e6174757265000000000000000060448201526064016105b1565b60028160048111156113cc576113cc6119ca565b141561141a5760405162461bcd60e51b815260206004820152601f60248201527f45434453413a20696e76616c6964207369676e6174757265206c656e6774680060448201526064016105b1565b600381600481111561142e5761142e6119ca565b14156114875760405162461bcd60e51b815260206004820152602260248201527f45434453413a20696e76616c6964207369676e6174757265202773272076616c604482015261756560f01b60648201526084016105b1565b600481600481111561149b5761149b6119ca565b14156110a35760405162461bcd60e51b815260206004820152602260248201527f45434453413a20696e76616c6964207369676e6174757265202776272076616c604482015261756560f01b60648201526084016105b1565b6000807f7fffffffffffffffffffffffffffffff5d576e7357a4501ddfe92f46681b20a083111561152b57506000905060036115d8565b8460ff16601b1415801561154357508460ff16601c14155b1561155457506000905060046115d8565b6040805160008082526020820180845289905260ff881692820192909252606081018690526080810185905260019060a0016020604051602081039080840390855afa1580156115a8573d6000803e3d6000fd5b5050604051601f1901519150506001600160a01b0381166115d1576000600192509250506115d8565b9150600090505b94509492505050565b6000806001600160ff1b038316816115fe60ff86901c601b6118e1565b905061160c878288856114f4565b935093505050935093915050565b6001600160a01b03811681146110a357600080fd5b60006020828403121561164157600080fd5b81356107288161161a565b6000806040838503121561165f57600080fd5b50508035926020909101359150565b60008083601f84011261168057600080fd5b50813567ffffffffffffffff81111561169857600080fd5b6020830191508360208260051b850101111561133257600080fd5b600080600080604085870312156116c957600080fd5b843567ffffffffffffffff808211156116e157600080fd5b6116ed8883890161166e565b9096509450602087013591508082111561170657600080fd5b506117138782880161166e565b95989497509550505050565b60006020828403121561173157600080fd5b5035919050565b634e487b7160e01b600052604160045260246000fd5b6000806000806080858703121561176457600080fd5b8435935060208501359250604085013561177d8161161a565b9150606085013567ffffffffffffffff8082111561179a57600080fd5b818701915087601f8301126117ae57600080fd5b8135818111156117c0576117c0611738565b604051601f8201601f19908116603f011681019083821181831017156117e8576117e8611738565b816040528281528a602084870101111561180157600080fd5b82602086016020830137600060208483010152809550505050505092959194509250565b6020808252818101527f4f776e61626c653a2063616c6c6572206973206e6f7420746865206f776e6572604082015260600190565b634e487b7160e01b600052601160045260246000fd5b600081600019048311821515161561188a5761188a61185a565b500290565b6000828210156118a1576118a161185a565b500390565b6000602082840312156118b857600080fd5b5051919050565b6000602082840312156118d157600080fd5b8151801515811461072857600080fd5b600082198211156118f4576118f461185a565b500190565b60208082526023908201527f4e6f7420656e6f7567682067686f7374732072656d61696e696e6720746f206d6040820152621a5b9d60ea1b606082015260800190565b634e487b7160e01b600052603260045260246000fd5b60006000198214156119665761196661185a565b5060010190565b60008261198a57634e487b7160e01b600052601260045260246000fd5b500490565b6000825160005b818110156119b05760208186018101518583015201611996565b818111156119bf576000828501525b509190910192915050565b634e487b7160e01b600052602160045260246000fdfea2646970667358221220c455e2ac6fd3dd7f42b4338efa399759e26b05695bbc00f7093f0dac1b617c0e64736f6c634300080b0033",
  "devdoc": {
    "events": {
      "MintKeyClaimed(address,address,uint256)": {
        "details": "provide feedback on mint key used for signed mints"
      }
    },
    "kind": "dev",
    "methods": {
      "currentEpoch()": {
        "details": "Epoch number start from 1, will increase every [EPOCH_BLOCKS] blocks"
      },
      "owner()": {
        "details": "Returns the address of the current owner."
      },
      "renounceOwnership()": {
        "details": "Leaves the contract without owner. It will not be possible to call `onlyOwner` functions anymore. Can only be called by the current owner. NOTE: Renouncing ownership will leave the contract without an owner, thereby removing any functionality that is only available to the owner."
      },
      "transferOwnership(address)": {
        "details": "Transfers ownership of the contract to a new account (`newOwner`). Can only be called by the current owner."
      }
    },
    "stateVariables": {
      "MAX_GHOSTS_PER_MINT": {
        "details": "Index and upper bound for mint"
      },
      "_claimedMintKeys": {
        "details": "Key(address) mapping to a claimed key. Used to prevent address from rebroadcasting mint transactions"
      },
      "publicMintPriceUpper": {
        "details": "Ether value for each token in public mint"
      },
      "publicMintStartBlock": {
        "details": "Starting block and inverval for public mint"
      },
      "verificationAddress": {
        "details": "Public address used to sign function calls parameters"
      }
    },
    "version": 1
  },
  "userdoc": {
    "kind": "user",
    "methods": {},
    "version": 1
  },
  "storageLayout": {
    "storage": [
      {
        "astId": 7,
        "contract": "src/HippyGhostsMinter.sol:HippyGhostsMinter",
        "label": "_owner",
        "offset": 0,
        "slot": "0",
        "type": "t_address"
      },
      {
        "astId": 1670,
        "contract": "src/HippyGhostsMinter.sol:HippyGhostsMinter",
        "label": "publicMintPriceUpper",
        "offset": 0,
        "slot": "1",
        "type": "t_uint256"
      },
      {
        "astId": 1673,
        "contract": "src/HippyGhostsMinter.sol:HippyGhostsMinter",
        "label": "publicMintPriceLower",
        "offset": 0,
        "slot": "2",
        "type": "t_uint256"
      },
      {
        "astId": 1676,
        "contract": "src/HippyGhostsMinter.sol:HippyGhostsMinter",
        "label": "publicMintPriceDecay",
        "offset": 0,
        "slot": "3",
        "type": "t_uint256"
      },
      {
        "astId": 1680,
        "contract": "src/HippyGhostsMinter.sol:HippyGhostsMinter",
        "label": "publicMintStartBlock",
        "offset": 0,
        "slot": "4",
        "type": "t_uint256"
      },
      {
        "astId": 1683,
        "contract": "src/HippyGhostsMinter.sol:HippyGhostsMinter",
        "label": "EPOCH_BLOCKS",
        "offset": 0,
        "slot": "5",
        "type": "t_uint256"
      },
      {
        "astId": 1686,
        "contract": "src/HippyGhostsMinter.sol:HippyGhostsMinter",
        "label": "GHOSTS_PER_EPOCH",
        "offset": 0,
        "slot": "6",
        "type": "t_uint256"
      },
      {
        "astId": 1693,
        "contract": "src/HippyGhostsMinter.sol:HippyGhostsMinter",
        "label": "ownerMintCount",
        "offset": 0,
        "slot": "7",
        "type": "t_uint256"
      },
      {
        "astId": 1699,
        "contract": "src/HippyGhostsMinter.sol:HippyGhostsMinter",
        "label": "privateMintIndex",
        "offset": 0,
        "slot": "8",
        "type": "t_uint256"
      },
      {
        "astId": 1705,
        "contract": "src/HippyGhostsMinter.sol:HippyGhostsMinter",
        "label": "publicMintIndex",
        "offset": 0,
        "slot": "9",
        "type": "t_uint256"
      },
      {
        "astId": 1711,
        "contract": "src/HippyGhostsMinter.sol:HippyGhostsMinter",
        "label": "verificationAddress",
        "offset": 0,
        "slot": "10",
        "type": "t_address"
      },
      {
        "astId": 1716,
        "contract": "src/HippyGhostsMinter.sol:HippyGhostsMinter",
        "label": "_claimedMintKeys",
        "offset": 0,
        "slot": "11",
        "type": "t_mapping(t_address,t_bool)"
      }
    ],
    "types": {
      "t_address": {
        "encoding": "inplace",
        "label": "address",
        "numberOfBytes": "20"
      },
      "t_bool": {
        "encoding": "inplace",
        "label": "bool",
        "numberOfBytes": "1"
      },
      "t_mapping(t_address,t_bool)": {
        "encoding": "mapping",
        "key": "t_address",
        "label": "mapping(address => bool)",
        "numberOfBytes": "32",
        "value": "t_bool"
      },
      "t_uint256": {
        "encoding": "inplace",
        "label": "uint256",
        "numberOfBytes": "32"
      }
    }
  }
}