{
  "address": "0x454e030F23A5587B4a96fBaE663e59389Eb5f460",
  "abi": [
    {
      "inputs": [
        {
          "internalType": "address",
          "name": "hippyGhosts_",
          "type": "address"
        },
        {
          "internalType": "address",
          "name": "gnosisSafe_",
          "type": "address"
        }
      ],
      "stateMutability": "nonpayable",
      "type": "constructor"
    },
    {
      "inputs": [],
      "name": "hippyGhosts",
      "outputs": [
        {
          "internalType": "address",
          "name": "",
          "type": "address"
        }
      ],
      "stateMutability": "view",
      "type": "function"
    },
    {
      "inputs": [
        {
          "internalType": "address",
          "name": "operator",
          "type": "address"
        },
        {
          "internalType": "address",
          "name": "from",
          "type": "address"
        },
        {
          "internalType": "uint256",
          "name": "tokenId",
          "type": "uint256"
        },
        {
          "internalType": "bytes",
          "name": "data",
          "type": "bytes"
        }
      ],
      "name": "onERC721Received",
      "outputs": [
        {
          "internalType": "bytes4",
          "name": "",
          "type": "bytes4"
        }
      ],
      "stateMutability": "nonpayable",
      "type": "function"
    }
  ],
  "transactionHash": "0x4c19cabd32faa8d538eb3aa1261a4d5ae6757611266bca31ff07f5ac1d64e2a4",
  "args": [
    "0x2a5503280d66A47DE0754ddc73252CA9a4e93dcb",
    "0xCA4F157682559551AC39b66be5766355DFE66EF9"
  ],
  "numDeployments": 1,
  "solcInputHash": "cfab10ae7ff74085d29270e631812ad6",
  "bytecode": "0x60a060405234801561001057600080fd5b5060405161068638038061068683398101604081905261002f916100ba565b6001600160a01b03828116608081905260405163a22cb46560e01b81529183166004830152600160248301529063a22cb46590604401600060405180830381600087803b15801561007f57600080fd5b505af1158015610093573d6000803e3d6000fd5b5050505050506100ed565b80516001600160a01b03811681146100b557600080fd5b919050565b600080604083850312156100cd57600080fd5b6100d68361009e565b91506100e46020840161009e565b90509250929050565b6080516105646101226000396000818160710152818160bb0152818161014d0152818161028d015261039001526105646000f3fe608060405234801561001057600080fd5b50600436106100365760003560e01c8063150b7a021461003b578063b75ffd561461006c575b600080fd5b61004e610049366004610432565b6100ab565b6040516001600160e01b031990911681526020015b60405180910390f35b6100937f000000000000000000000000000000000000000000000000000000000000000081565b6040516001600160a01b039091168152602001610063565b6000945084336001600160a01b037f0000000000000000000000000000000000000000000000000000000000000000161461012d5760405162461bcd60e51b815260206004820152601a60248201527f43616c6c6572206973206e6f7420486970707947686f7374732e00000000000060448201526064015b60405180910390fd5b6040516331a9108f60e11b81526004810185905230906001600160a01b037f00000000000000000000000000000000000000000000000000000000000000001690636352211e90602401602060405180830381865afa158015610194573d6000803e3d6000fd5b505050506040513d601f19601f820116820180604052508101906101b891906104d1565b6001600160a01b0316146102075760405162461bcd60e51b815260206004820152601660248201527523b437b9ba1034b9903737ba103932b1b2b4bb32b21760511b6044820152606401610124565b81156103ef5760008061021c848601866104f5565b90925090506001600160e01b03198216634a5c8c6f60e11b1461026d5760405162461bcd60e51b81526020600482015260096024820152682bb937b7339037b81760b91b6044820152606401610124565b6040516331a9108f60e11b81526004810182905230906001600160a01b037f00000000000000000000000000000000000000000000000000000000000000001690636352211e90602401602060405180830381865afa1580156102d4573d6000803e3d6000fd5b505050506040513d601f19601f820116820180604052508101906102f891906104d1565b6001600160a01b0316146103645760405162461bcd60e51b815260206004820152602d60248201527f5468652077616e7465642047686f737420646f65736e27742062656c6f6e677360448201526c103a379029bbb0b82837b7b61760991b6064820152608401610124565b6040516323b872dd60e01b81523060048201526001600160a01b038881166024830152604482018390527f000000000000000000000000000000000000000000000000000000000000000016906323b872dd90606401600060405180830381600087803b1580156103d457600080fd5b505af11580156103e8573d6000803e3d6000fd5b5050505050505b507f150b7a023d4804d13e8c85fb27262cb750cf6ba9f9dd3bb30d90f482ceeb4b1f95945050505050565b6001600160a01b038116811461042f57600080fd5b50565b60008060008060006080868803121561044a57600080fd5b85356104558161041a565b945060208601356104658161041a565b935060408601359250606086013567ffffffffffffffff8082111561048957600080fd5b818801915088601f83011261049d57600080fd5b8135818111156104ac57600080fd5b8960208285010111156104be57600080fd5b9699959850939650602001949392505050565b6000602082840312156104e357600080fd5b81516104ee8161041a565b9392505050565b6000806040838503121561050857600080fd5b82356001600160e01b03198116811461052057600080fd5b94602093909301359350505056fea2646970667358221220f4affe0c2567d3e5080fd386d7e4da0bbef94c7af01a24ba4a35995ffae8fc1564736f6c634300080b0033",
  "devdoc": {
    "kind": "dev",
    "methods": {},
    "version": 1
  },
  "userdoc": {
    "kind": "user",
    "methods": {
      "onERC721Received(address,address,uint256,bytes)": {
        "notice": "caller must be HippyGhosts contract, this ensures:   - The Transfer really happened before onERC721Received   - SwapPool only accepts NFTs of HippyGhosts"
      }
    },
    "version": 1
  },
  "storageLayout": {
    "storage": [],
    "types": null
  }
}