{
  "address": "0x6E4e27fE40cc66484Cf386535900fbE34899D3e8",
  "abi": [
    {
      "inputs": [
        {
          "internalType": "address",
          "name": "hippyGhosts_",
          "type": "address"
        },
        {
          "internalType": "address",
          "name": "verificationAddress_",
          "type": "address"
        }
      ],
      "stateMutability": "nonpayable",
      "type": "constructor"
    },
    {
      "anonymous": false,
      "inputs": [
        {
          "indexed": true,
          "internalType": "address",
          "name": "claimer",
          "type": "address"
        },
        {
          "indexed": true,
          "internalType": "address",
          "name": "mintKey",
          "type": "address"
        },
        {
          "indexed": false,
          "internalType": "uint256",
          "name": "numberOfTokens",
          "type": "uint256"
        }
      ],
      "name": "MintKeyClaimed",
      "type": "event"
    },
    {
      "anonymous": false,
      "inputs": [
        {
          "indexed": true,
          "internalType": "address",
          "name": "previousOwner",
          "type": "address"
        },
        {
          "indexed": true,
          "internalType": "address",
          "name": "newOwner",
          "type": "address"
        }
      ],
      "name": "OwnershipTransferred",
      "type": "event"
    },
    {
      "inputs": [],
      "name": "EPOCH_BLOCKS",
      "outputs": [
        {
          "internalType": "uint256",
          "name": "",
          "type": "uint256"
        }
      ],
      "stateMutability": "view",
      "type": "function"
    },
    {
      "inputs": [],
      "name": "GHOSTS_PER_EPOCH",
      "outputs": [
        {
          "internalType": "uint256",
          "name": "",
          "type": "uint256"
        }
      ],
      "stateMutability": "view",
      "type": "function"
    },
    {
      "inputs": [],
      "name": "MAX_GHOSTS_PER_MINT",
      "outputs": [
        {
          "internalType": "uint256",
          "name": "",
          "type": "uint256"
        }
      ],
      "stateMutability": "view",
      "type": "function"
    },
    {
      "inputs": [],
      "name": "MAX_OWNER_MINT_COUNT",
      "outputs": [
        {
          "internalType": "uint256",
          "name": "",
          "type": "uint256"
        }
      ],
      "stateMutability": "view",
      "type": "function"
    },
    {
      "inputs": [],
      "name": "MAX_PRIVATE_MINT_INDEX",
      "outputs": [
        {
          "internalType": "uint256",
          "name": "",
          "type": "uint256"
        }
      ],
      "stateMutability": "view",
      "type": "function"
    },
    {
      "inputs": [],
      "name": "MAX_PUBLIC_MINT_INDEX",
      "outputs": [
        {
          "internalType": "uint256",
          "name": "",
          "type": "uint256"
        }
      ],
      "stateMutability": "view",
      "type": "function"
    },
    {
      "inputs": [],
      "name": "availableForPublicMint",
      "outputs": [
        {
          "internalType": "uint256",
          "name": "",
          "type": "uint256"
        }
      ],
      "stateMutability": "view",
      "type": "function"
    },
    {
      "inputs": [],
      "name": "currentEpoch",
      "outputs": [
        {
          "internalType": "uint256",
          "name": "",
          "type": "uint256"
        }
      ],
      "stateMutability": "view",
      "type": "function"
    },
    {
      "inputs": [
        {
          "internalType": "uint256",
          "name": "tokenId",
          "type": "uint256"
        }
      ],
      "name": "epochOfToken",
      "outputs": [
        {
          "internalType": "uint256",
          "name": "",
          "type": "uint256"
        }
      ],
      "stateMutability": "pure",
      "type": "function"
    },
    {
      "inputs": [],
      "name": "hippyGhosts",
      "outputs": [
        {
          "internalType": "address",
          "name": "",
          "type": "address"
        }
      ],
      "stateMutability": "view",
      "type": "function"
    },
    {
      "inputs": [
        {
          "internalType": "address",
          "name": "mintKey",
          "type": "address"
        }
      ],
      "name": "isMintKeyClaimed",
      "outputs": [
        {
          "internalType": "bool",
          "name": "",
          "type": "bool"
        }
      ],
      "stateMutability": "view",
      "type": "function"
    },
    {
      "inputs": [
        {
          "internalType": "uint256",
          "name": "numberOfTokens",
          "type": "uint256"
        }
      ],
      "name": "mint",
      "outputs": [],
      "stateMutability": "payable",
      "type": "function"
    },
    {
      "inputs": [
        {
          "internalType": "uint256",
          "name": "numberOfTokens",
          "type": "uint256"
        },
        {
          "internalType": "uint256",
          "name": "valueInWei",
          "type": "uint256"
        },
        {
          "internalType": "address",
          "name": "mintKey",
          "type": "address"
        },
        {
          "internalType": "bytes",
          "name": "signature",
          "type": "bytes"
        }
      ],
      "name": "mintWithSignature",
      "outputs": [],
      "stateMutability": "payable",
      "type": "function"
    },
    {
      "inputs": [],
      "name": "owner",
      "outputs": [
        {
          "internalType": "address",
          "name": "",
          "type": "address"
        }
      ],
      "stateMutability": "view",
      "type": "function"
    },
    {
      "inputs": [
        {
          "internalType": "address[]",
          "name": "addresses",
          "type": "address[]"
        },
        {
          "internalType": "uint256[]",
          "name": "tokenIds",
          "type": "uint256[]"
        }
      ],
      "name": "ownerMint",
      "outputs": [],
      "stateMutability": "nonpayable",
      "type": "function"
    },
    {
      "inputs": [],
      "name": "ownerMintCount",
      "outputs": [
        {
          "internalType": "uint256",
          "name": "",
          "type": "uint256"
        }
      ],
      "stateMutability": "view",
      "type": "function"
    },
    {
      "inputs": [
        {
          "internalType": "uint256",
          "name": "_currentEpoch",
          "type": "uint256"
        },
        {
          "internalType": "uint256",
          "name": "_tokenEpoch",
          "type": "uint256"
        }
      ],
      "name": "priceForTokenId",
      "outputs": [
        {
          "internalType": "uint256",
          "name": "",
          "type": "uint256"
        }
      ],
      "stateMutability": "pure",
      "type": "function"
    },
    {
      "inputs": [
        {
          "internalType": "uint256",
          "name": "tokenId",
          "type": "uint256"
        }
      ],
      "name": "priceForTokenId",
      "outputs": [
        {
          "internalType": "uint256",
          "name": "",
          "type": "uint256"
        }
      ],
      "stateMutability": "view",
      "type": "function"
    },
    {
      "inputs": [],
      "name": "privateMintCount",
      "outputs": [
        {
          "internalType": "uint128",
          "name": "",
          "type": "uint128"
        }
      ],
      "stateMutability": "view",
      "type": "function"
    },
    {
      "inputs": [],
      "name": "privateMintIndex",
      "outputs": [
        {
          "internalType": "uint128",
          "name": "",
          "type": "uint128"
        }
      ],
      "stateMutability": "view",
      "type": "function"
    },
    {
      "inputs": [],
      "name": "publicMintIndex",
      "outputs": [
        {
          "internalType": "uint256",
          "name": "",
          "type": "uint256"
        }
      ],
      "stateMutability": "view",
      "type": "function"
    },
    {
      "inputs": [],
      "name": "publicMintPriceDecay",
      "outputs": [
        {
          "internalType": "uint256",
          "name": "",
          "type": "uint256"
        }
      ],
      "stateMutability": "view",
      "type": "function"
    },
    {
      "inputs": [],
      "name": "publicMintPriceLower",
      "outputs": [
        {
          "internalType": "uint256",
          "name": "",
          "type": "uint256"
        }
      ],
      "stateMutability": "view",
      "type": "function"
    },
    {
      "inputs": [],
      "name": "publicMintPriceUpper",
      "outputs": [
        {
          "internalType": "uint256",
          "name": "",
          "type": "uint256"
        }
      ],
      "stateMutability": "view",
      "type": "function"
    },
    {
      "inputs": [],
      "name": "publicMintStartBlock",
      "outputs": [
        {
          "internalType": "uint256",
          "name": "",
          "type": "uint256"
        }
      ],
      "stateMutability": "view",
      "type": "function"
    },
    {
      "inputs": [],
      "name": "renounceOwnership",
      "outputs": [],
      "stateMutability": "nonpayable",
      "type": "function"
    },
    {
      "inputs": [],
      "name": "selfDestruct",
      "outputs": [],
      "stateMutability": "nonpayable",
      "type": "function"
    },
    {
      "inputs": [
        {
          "internalType": "uint256",
          "name": "publicMintStartBlock_",
          "type": "uint256"
        }
      ],
      "name": "setPublicMintStartBlock",
      "outputs": [],
      "stateMutability": "nonpayable",
      "type": "function"
    },
    {
      "inputs": [
        {
          "internalType": "address",
          "name": "verificationAddress_",
          "type": "address"
        }
      ],
      "name": "setVerificationAddress",
      "outputs": [],
      "stateMutability": "nonpayable",
      "type": "function"
    },
    {
      "inputs": [
        {
          "internalType": "address",
          "name": "newOwner",
          "type": "address"
        }
      ],
      "name": "transferOwnership",
      "outputs": [],
      "stateMutability": "nonpayable",
      "type": "function"
    },
    {
      "inputs": [],
      "name": "verificationAddress",
      "outputs": [
        {
          "internalType": "address",
          "name": "",
          "type": "address"
        }
      ],
      "stateMutability": "view",
      "type": "function"
    },
    {
      "inputs": [],
      "name": "withdraw",
      "outputs": [],
      "stateMutability": "nonpayable",
      "type": "function"
    },
    {
      "inputs": [
        {
          "internalType": "contract IERC20",
          "name": "token",
          "type": "address"
        }
      ],
      "name": "withdrawTokens",
      "outputs": [],
      "stateMutability": "nonpayable",
      "type": "function"
    },
    {
      "stateMutability": "payable",
      "type": "receive"
    }
  ],
  "transactionHash": "0x7cc1bf45a12e189755172af47839f9367cf9bb041414b5e77d546888ed94f86f",
  "args": [
    "0x2a5503280d66A47DE0754ddc73252CA9a4e93dcb",
    "0x976f61940624C8EeA0F7D2E8852F3F7E32d25E26"
  ],
  "numDeployments": 1,
  "solcInputHash": "6c473bddb0a8ea2d420b95dde6519518",
  "bytecode": "0x60a060405260006001819055600255602d60821b6003556105dc6004553480156200002957600080fd5b5060405162001c2738038062001c278339810160408190526200004c91620000ed565b620000573362000080565b6001600160a01b03918216608052600580546001600160a01b0319169190921617905562000125565b600080546001600160a01b038381166001600160a01b0319831681178455604051919092169283917f8be0079c531659141344cd1fd0a4f28419497f9722a3daafe3b4186f6b6457e09190a35050565b80516001600160a01b0381168114620000e857600080fd5b919050565b600080604083850312156200010157600080fd5b6200010c83620000d0565b91506200011c60208401620000d0565b90509250929050565b608051611ad162000156600039600081816105340152818161097101528181610c720152610f320152611ad16000f3fe6080604052600436106101f25760003560e01c80638dda4c901161010d578063ae3c87be116100a0578063cfd15bbd1161006f578063cfd15bbd146104e0578063e9d899c614610556578063f2fde38b14610576578063fc873cd514610596578063fce531df146105b657600080fd5b8063ae3c87be146104e0578063af2a541d146104f6578063afad7c6a1461050c578063b75ffd561461052257600080fd5b8063a0712d68116100dc578063a0712d6814610455578063a13bfd6514610468578063a3e04e401461047b578063ab5d5ea21461049757600080fd5b80638dda4c90146103ef578063934dc7491461040a5780639bb4fc451461042a5780639cb8a26a1461044057600080fd5b806369f7d2f211610185578063766718081161015457806376671808146103455780638429c9661461035a578063871ee495146103995780638da5cb5b146103d157600080fd5b806369f7d2f2146102e5578063715018a61461030557806373f73a6e1461031a57806374c259c61461032f57600080fd5b8063417ffa83116101c1578063417ffa831461027357806349df728c146102935780634dc64fb6146102b3578063637b2d6c146102cf57600080fd5b806306959429146101fe57806307c7903b14610220578063137edaa0146102485780633ccfd60b1461025e57600080fd5b366101f957005b600080fd5b34801561020a57600080fd5b5061021e6102193660046116bf565b6105d6565b005b34801561022c57600080fd5b5061023561062b565b6040519081526020015b60405180910390f35b34801561025457600080fd5b5061023560025481565b34801561026a57600080fd5b5061021e61068f565b34801561027f57600080fd5b5061023561028e3660046116dc565b6106ec565b34801561029f57600080fd5b5061021e6102ae3660046116bf565b610792565b3480156102bf57600080fd5b5061023567011c37937e08000081565b3480156102db57600080fd5b506102356105dc81565b3480156102f157600080fd5b5061021e610300366004611743565b6108a0565b34801561031157600080fd5b5061021e610a58565b34801561032657600080fd5b50610235600a81565b34801561033b57600080fd5b50610235619c4081565b34801561035157600080fd5b50610235610a8e565b34801561036657600080fd5b5060035461038190600160801b90046001600160801b031681565b6040516001600160801b03909116815260200161023f565b3480156103a557600080fd5b506005546103b9906001600160a01b031681565b6040516001600160a01b03909116815260200161023f565b3480156103dd57600080fd5b506000546001600160a01b03166103b9565b3480156103fb57600080fd5b50610235668e1bc9bf04000081565b34801561041657600080fd5b506102356104253660046117af565b610add565b34801561043657600080fd5b5061023560015481565b34801561044c57600080fd5b5061021e610af9565b61021e6104633660046117af565b610b26565b61021e6104763660046117de565b610d1d565b34801561048757600080fd5b50610235670354a6ba7a18000081565b3480156104a357600080fd5b506104d06104b23660046116bf565b6001600160a01b031660009081526006602052604090205460ff1690565b604051901515815260200161023f565b3480156104ec57600080fd5b5061023561012c81565b34801561050257600080fd5b5061023560045481565b34801561051857600080fd5b5061023561270f81565b34801561052e57600080fd5b506103b97f000000000000000000000000000000000000000000000000000000000000000081565b34801561056257600080fd5b506102356105713660046117af565b611022565b34801561058257600080fd5b5061021e6105913660046116bf565b61109b565b3480156105a257600080fd5b50600354610381906001600160801b031681565b3480156105c257600080fd5b5061021e6105d13660046117af565b611136565b6000546001600160a01b031633146106095760405162461bcd60e51b8152600401610600906118b5565b60405180910390fd5b600580546001600160a01b0319166001600160a01b0392909216919091179055565b600080610636610a8e565b6106429061012c611900565b90506106526105dc61270f61191f565b81111561066a576106676105dc61270f61191f565b90505b60006105dc60045461067c919061191f565b9050610688818361191f565b9250505090565b6000546001600160a01b031633146106b95760405162461bcd60e51b8152600401610600906118b5565b6040514790339082156108fc029083906000818181858888f193505050501580156106e8573d6000803e3d6000fd5b5050565b60008183101561073e5760405162461bcd60e51b815260206004820152601860248201527f5461726765742065706f6368206973206e6f74206f70656e00000000000000006044820152606401610600565b6000668e1bc9bf040000610752848661191f565b61075c9190611900565b61076e90670354a6ba7a18000061191f565b905067011c37937e08000081101561078b575067011c37937e0800005b9392505050565b6000546001600160a01b031633146107bc5760405162461bcd60e51b8152600401610600906118b5565b6040516370a0823160e01b81523060048201526000906001600160a01b038316906370a0823190602401602060405180830381865afa158015610803573d6000803e3d6000fd5b505050506040513d601f19601f820116820180604052508101906108279190611936565b60405163a9059cbb60e01b8152336004820152602481018290529091506001600160a01b0383169063a9059cbb906044016020604051808303816000875af1158015610877573d6000803e3d6000fd5b505050506040513d601f19601f8201168201806040525081019061089b919061194f565b505050565b6000546001600160a01b031633146108ca5760405162461bcd60e51b8152600401610600906118b5565b6002546108d8908290611971565b600281905561012c10156108fe5760405162461bcd60e51b815260040161060090611989565b60005b81811015610a51576105dc83838381811061091e5761091e6119cc565b90506020020135111561096f5760405162461bcd60e51b8152602060048201526019602482015278125b98dbdc9c9958dd081d1bdad95b9259081d1bc81b5a5b9d603a1b6044820152606401610600565b7f00000000000000000000000000000000000000000000000000000000000000006001600160a01b03166340c10f198686848181106109b0576109b06119cc565b90506020020160208101906109c591906116bf565b8585858181106109d7576109d76119cc565b6040516001600160e01b031960e087901b1681526001600160a01b0390941660048501526020029190910135602483015250604401600060405180830381600087803b158015610a2657600080fd5b505af1158015610a3a573d6000803e3d6000fd5b505050508080610a49906119e2565b915050610901565b5050505050565b6000546001600160a01b03163314610a825760405162461bcd60e51b8152600401610600906118b5565b610a8c60006111c7565b565b600060015460001480610aa2575060015443105b15610aad5750600090565b6000619c4060015443610ac0919061191f565b610aca91906119fd565b9050610ad7816001611971565b91505090565b6000610af3610aea610a8e565b61028e84611022565b92915050565b6000546001600160a01b03163314610b235760405162461bcd60e51b8152600401610600906118b5565b33ff5b6000610b30610a8e565b905060008111610b825760405162461bcd60e51b815260206004820152601760248201527f5075626c69632073616c65206973206e6f74206f70656e0000000000000000006044820152606401610600565b600a821115610bd35760405162461bcd60e51b815260206004820152601960248201527f4d61782067686f73747320746f206d696e742069732074656e000000000000006044820152606401610600565b61270f82600454610be49190611971565b1115610c025760405162461bcd60e51b815260040161060090611989565b3460005b83811015610ce357600454610c1c906001611971565b6004819055600090610c2d90611022565b90506000610c3b85836106ec565b9050610c47818561191f565b600480546040516340c10f1960e01b8152339281019290925260248201529094506001600160a01b037f000000000000000000000000000000000000000000000000000000000000000016906340c10f1990604401600060405180830381600087803b158015610cb657600080fd5b505af1158015610cca573d6000803e3d6000fd5b5050505050508080610cdb906119e2565b915050610c06565b50801561089b57604051339082156108fc029083906000818181858888f19350505050158015610d17573d6000803e3d6000fd5b50505050565b348314610d645760405162461bcd60e51b8152602060048201526015602482015274496e636f72726563742065746865722076616c756560581b6044820152606401610600565b6001600160a01b03821660009081526006602052604090205460ff1615610dcd5760405162461bcd60e51b815260206004820152601860248201527f4d696e74206b657920616c726561647920636c61696d656400000000000000006044820152606401610600565b6040516bffffffffffffffffffffffff1933606090811b82166020840152603483018790526054830186905284811b8216607484015230901b166088820152610e3690609c0160408051601f1981840301815291905260055483906001600160a01b0316611217565b6001600160a01b03821660008181526006602052604090819020805460ff191660011790555133907f7199211527ef146af6ac7c4a9d44fb290d7a4e6a2c164effe334f1944bd551f490610e8d9088815260200190565b60405180910390a3600354600160801b90046001600160801b031660005b85811015610fed57600060605b81610fd857610ec8846001611971565b93506105dc841115610f185760405162461bcd60e51b8152602060048201526019602482015278125b98dbdc9c9958dd081d1bdad95b9259081d1bc81b5a5b9d603a1b6044820152606401610600565b604051336024820152604481018590526001600160a01b037f0000000000000000000000000000000000000000000000000000000000000000169060640160408051601f198184030181529181526020820180516001600160e01b03166340c10f1960e01b17905251610f8b9190611a1f565b6000604051808303816000865af19150503d8060008114610fc8576040519150601f19603f3d011682016040523d82523d6000602084013e610fcd565b606091505b509092509050610eb8565b50508080610fe5906119e2565b915050610eab565b506003546110059086906001600160801b0316611a5a565b6001600160801b03918216600160801b0291161760035550505050565b60006105dc82116110675760405162461bcd60e51b815260206004820152600f60248201526e125b9d985b1a59081d1bdad95b9259608a1b6044820152606401610600565b600061012c600161107a6105dc8661191f565b611084919061191f565b61108e91906119fd565b905061078b816001611971565b6000546001600160a01b031633146110c55760405162461bcd60e51b8152600401610600906118b5565b6001600160a01b03811661112a5760405162461bcd60e51b815260206004820152602660248201527f4f776e61626c653a206e6577206f776e657220697320746865207a65726f206160448201526564647265737360d01b6064820152608401610600565b611133816111c7565b50565b6000546001600160a01b031633146111605760405162461bcd60e51b8152600401610600906118b5565b600154156111c25760405162461bcd60e51b815260206004820152602960248201527f7075626c69634d696e745374617274426c6f636b2068617320616c7265616479604482015268081899595b881cd95d60ba1b6064820152608401610600565b600155565b600080546001600160a01b038381166001600160a01b0319831681178455604051919092169283917f8be0079c531659141344cd1fd0a4f28419497f9722a3daafe3b4186f6b6457e09190a35050565b6001600160a01b0381166112795760405162461bcd60e51b8152602060048201526024808201527f766572696669636174696f6e2061646472657373206e6f7420696e697469616c6044820152631a5e995960e21b6064820152608401610600565b806001600160a01b03166112eb836112e586805190602001206040517f19457468657265756d205369676e6564204d6573736167653a0a3332000000006020820152603c8101829052600090605c01604051602081830303815290604052805190602001209050919050565b90611335565b6001600160a01b03161461089b5760405162461bcd60e51b81526020600482015260116024820152701cda59db985d1d5c99481a5b9d985b1a59607a1b6044820152606401610600565b60008060006113448585611359565b91509150611351816113c9565b509392505050565b6000808251604114156113905760208301516040840151606085015160001a61138487828585611584565b945094505050506113c2565b8251604014156113ba57602083015160408401516113af868383611671565b9350935050506113c2565b506000905060025b9250929050565b60008160048111156113dd576113dd611a85565b14156113e65750565b60018160048111156113fa576113fa611a85565b14156114485760405162461bcd60e51b815260206004820152601860248201527f45434453413a20696e76616c6964207369676e617475726500000000000000006044820152606401610600565b600281600481111561145c5761145c611a85565b14156114aa5760405162461bcd60e51b815260206004820152601f60248201527f45434453413a20696e76616c6964207369676e6174757265206c656e677468006044820152606401610600565b60038160048111156114be576114be611a85565b14156115175760405162461bcd60e51b815260206004820152602260248201527f45434453413a20696e76616c6964207369676e6174757265202773272076616c604482015261756560f01b6064820152608401610600565b600481600481111561152b5761152b611a85565b14156111335760405162461bcd60e51b815260206004820152602260248201527f45434453413a20696e76616c6964207369676e6174757265202776272076616c604482015261756560f01b6064820152608401610600565b6000807f7fffffffffffffffffffffffffffffff5d576e7357a4501ddfe92f46681b20a08311156115bb5750600090506003611668565b8460ff16601b141580156115d357508460ff16601c14155b156115e45750600090506004611668565b6040805160008082526020820180845289905260ff881692820192909252606081018690526080810185905260019060a0016020604051602081039080840390855afa158015611638573d6000803e3d6000fd5b5050604051601f1901519150506001600160a01b03811661166157600060019250925050611668565b9150600090505b94509492505050565b6000806001600160ff1b0383168161168e60ff86901c601b611971565b905061169c87828885611584565b935093505050935093915050565b6001600160a01b038116811461113357600080fd5b6000602082840312156116d157600080fd5b813561078b816116aa565b600080604083850312156116ef57600080fd5b50508035926020909101359150565b60008083601f84011261171057600080fd5b50813567ffffffffffffffff81111561172857600080fd5b6020830191508360208260051b85010111156113c257600080fd5b6000806000806040858703121561175957600080fd5b843567ffffffffffffffff8082111561177157600080fd5b61177d888389016116fe565b9096509450602087013591508082111561179657600080fd5b506117a3878288016116fe565b95989497509550505050565b6000602082840312156117c157600080fd5b5035919050565b634e487b7160e01b600052604160045260246000fd5b600080600080608085870312156117f457600080fd5b8435935060208501359250604085013561180d816116aa565b9150606085013567ffffffffffffffff8082111561182a57600080fd5b818701915087601f83011261183e57600080fd5b813581811115611850576118506117c8565b604051601f8201601f19908116603f01168101908382118183101715611878576118786117c8565b816040528281528a602084870101111561189157600080fd5b82602086016020830137600060208483010152809550505050505092959194509250565b6020808252818101527f4f776e61626c653a2063616c6c6572206973206e6f7420746865206f776e6572604082015260600190565b634e487b7160e01b600052601160045260246000fd5b600081600019048311821515161561191a5761191a6118ea565b500290565b600082821015611931576119316118ea565b500390565b60006020828403121561194857600080fd5b5051919050565b60006020828403121561196157600080fd5b8151801515811461078b57600080fd5b60008219821115611984576119846118ea565b500190565b60208082526023908201527f4e6f7420656e6f7567682067686f7374732072656d61696e696e6720746f206d6040820152621a5b9d60ea1b606082015260800190565b634e487b7160e01b600052603260045260246000fd5b60006000198214156119f6576119f66118ea565b5060010190565b600082611a1a57634e487b7160e01b600052601260045260246000fd5b500490565b6000825160005b81811015611a405760208186018101518583015201611a26565b81811115611a4f576000828501525b509190910192915050565b60006001600160801b03808316818516808303821115611a7c57611a7c6118ea565b01949350505050565b634e487b7160e01b600052602160045260246000fdfea26469706673582212200bf8733529e2569b80ab5c995296765a5ff6caf36ab3561f93e8fb4026dc306f64736f6c634300080b0033",
  "devdoc": {
    "events": {
      "MintKeyClaimed(address,address,uint256)": {
        "details": "provide feedback on mint key used for signed mints"
      }
    },
    "kind": "dev",
    "methods": {
      "currentEpoch()": {
        "details": "Epoch number start from 1, will increase every [EPOCH_BLOCKS] blocks"
      },
      "owner()": {
        "details": "Returns the address of the current owner."
      },
      "renounceOwnership()": {
        "details": "Leaves the contract without owner. It will not be possible to call `onlyOwner` functions anymore. Can only be called by the current owner. NOTE: Renouncing ownership will leave the contract without an owner, thereby removing any functionality that is only available to the owner."
      },
      "transferOwnership(address)": {
        "details": "Transfers ownership of the contract to a new account (`newOwner`). Can only be called by the current owner."
      }
    },
    "stateVariables": {
      "MAX_GHOSTS_PER_MINT": {
        "details": "Index and upper bound for mint"
      },
      "_claimedMintKeys": {
        "details": "Key(address) mapping to a claimed key. Used to prevent address from rebroadcasting mint transactions"
      },
      "publicMintPriceUpper": {
        "details": "Ether value for each token in public mint"
      },
      "publicMintStartBlock": {
        "details": "Starting block and inverval for public mint"
      },
      "verificationAddress": {
        "details": "Public address used to sign function calls parameters"
      }
    },
    "version": 1
  },
  "userdoc": {
    "kind": "user",
    "methods": {},
    "version": 1
  },
  "storageLayout": {
    "storage": [
      {
        "astId": 7,
        "contract": "src/HippyGhostsMinter.sol:HippyGhostsMinter",
        "label": "_owner",
        "offset": 0,
        "slot": "0",
        "type": "t_address"
      },
      {
        "astId": 1680,
        "contract": "src/HippyGhostsMinter.sol:HippyGhostsMinter",
        "label": "publicMintStartBlock",
        "offset": 0,
        "slot": "1",
        "type": "t_uint256"
      },
      {
        "astId": 1693,
        "contract": "src/HippyGhostsMinter.sol:HippyGhostsMinter",
        "label": "ownerMintCount",
        "offset": 0,
        "slot": "2",
        "type": "t_uint256"
      },
      {
        "astId": 1699,
        "contract": "src/HippyGhostsMinter.sol:HippyGhostsMinter",
        "label": "privateMintCount",
        "offset": 0,
        "slot": "3",
        "type": "t_uint128"
      },
      {
        "astId": 1702,
        "contract": "src/HippyGhostsMinter.sol:HippyGhostsMinter",
        "label": "privateMintIndex",
        "offset": 16,
        "slot": "3",
        "type": "t_uint128"
      },
      {
        "astId": 1708,
        "contract": "src/HippyGhostsMinter.sol:HippyGhostsMinter",
        "label": "publicMintIndex",
        "offset": 0,
        "slot": "4",
        "type": "t_uint256"
      },
      {
        "astId": 1714,
        "contract": "src/HippyGhostsMinter.sol:HippyGhostsMinter",
        "label": "verificationAddress",
        "offset": 0,
        "slot": "5",
        "type": "t_address"
      },
      {
        "astId": 1719,
        "contract": "src/HippyGhostsMinter.sol:HippyGhostsMinter",
        "label": "_claimedMintKeys",
        "offset": 0,
        "slot": "6",
        "type": "t_mapping(t_address,t_bool)"
      }
    ],
    "types": {
      "t_address": {
        "encoding": "inplace",
        "label": "address",
        "numberOfBytes": "20"
      },
      "t_bool": {
        "encoding": "inplace",
        "label": "bool",
        "numberOfBytes": "1"
      },
      "t_mapping(t_address,t_bool)": {
        "encoding": "mapping",
        "key": "t_address",
        "label": "mapping(address => bool)",
        "numberOfBytes": "32",
        "value": "t_bool"
      },
      "t_uint128": {
        "encoding": "inplace",
        "label": "uint128",
        "numberOfBytes": "16"
      },
      "t_uint256": {
        "encoding": "inplace",
        "label": "uint256",
        "numberOfBytes": "32"
      }
    }
  }
}