{
  "address": "0x2a5503280d66A47DE0754ddc73252CA9a4e93dcb",
  "abi": [
    {
      "inputs": [],
      "stateMutability": "nonpayable",
      "type": "constructor"
    },
    {
      "anonymous": false,
      "inputs": [
        {
          "indexed": true,
          "internalType": "address",
          "name": "owner",
          "type": "address"
        },
        {
          "indexed": true,
          "internalType": "address",
          "name": "spender",
          "type": "address"
        },
        {
          "indexed": true,
          "internalType": "uint256",
          "name": "id",
          "type": "uint256"
        }
      ],
      "name": "Approval",
      "type": "event"
    },
    {
      "anonymous": false,
      "inputs": [
        {
          "indexed": true,
          "internalType": "address",
          "name": "owner",
          "type": "address"
        },
        {
          "indexed": true,
          "internalType": "address",
          "name": "operator",
          "type": "address"
        },
        {
          "indexed": false,
          "internalType": "bool",
          "name": "approved",
          "type": "bool"
        }
      ],
      "name": "ApprovalForAll",
      "type": "event"
    },
    {
      "anonymous": false,
      "inputs": [
        {
          "indexed": true,
          "internalType": "address",
          "name": "previousOwner",
          "type": "address"
        },
        {
          "indexed": true,
          "internalType": "address",
          "name": "newOwner",
          "type": "address"
        }
      ],
      "name": "OwnershipTransferred",
      "type": "event"
    },
    {
      "anonymous": false,
      "inputs": [
        {
          "indexed": true,
          "internalType": "address",
          "name": "from",
          "type": "address"
        },
        {
          "indexed": true,
          "internalType": "address",
          "name": "to",
          "type": "address"
        },
        {
          "indexed": true,
          "internalType": "uint256",
          "name": "id",
          "type": "uint256"
        }
      ],
      "name": "Transfer",
      "type": "event"
    },
    {
      "inputs": [
        {
          "internalType": "address",
          "name": "spender",
          "type": "address"
        },
        {
          "internalType": "uint256",
          "name": "id",
          "type": "uint256"
        }
      ],
      "name": "approve",
      "outputs": [],
      "stateMutability": "nonpayable",
      "type": "function"
    },
    {
      "inputs": [
        {
          "internalType": "address",
          "name": "owner",
          "type": "address"
        }
      ],
      "name": "balanceOf",
      "outputs": [
        {
          "internalType": "uint256",
          "name": "",
          "type": "uint256"
        }
      ],
      "stateMutability": "view",
      "type": "function"
    },
    {
      "inputs": [
        {
          "internalType": "uint256",
          "name": "",
          "type": "uint256"
        }
      ],
      "name": "getApproved",
      "outputs": [
        {
          "internalType": "address",
          "name": "",
          "type": "address"
        }
      ],
      "stateMutability": "view",
      "type": "function"
    },
    {
      "inputs": [
        {
          "internalType": "address",
          "name": "",
          "type": "address"
        },
        {
          "internalType": "address",
          "name": "",
          "type": "address"
        }
      ],
      "name": "isApprovedForAll",
      "outputs": [
        {
          "internalType": "bool",
          "name": "",
          "type": "bool"
        }
      ],
      "stateMutability": "view",
      "type": "function"
    },
    {
      "inputs": [
        {
          "internalType": "address",
          "name": "to",
          "type": "address"
        },
        {
          "internalType": "uint256",
          "name": "tokenId",
          "type": "uint256"
        }
      ],
      "name": "mint",
      "outputs": [],
      "stateMutability": "nonpayable",
      "type": "function"
    },
    {
      "inputs": [],
      "name": "mintController",
      "outputs": [
        {
          "internalType": "address",
          "name": "",
          "type": "address"
        }
      ],
      "stateMutability": "view",
      "type": "function"
    },
    {
      "inputs": [],
      "name": "name",
      "outputs": [
        {
          "internalType": "string",
          "name": "",
          "type": "string"
        }
      ],
      "stateMutability": "view",
      "type": "function"
    },
    {
      "inputs": [],
      "name": "owner",
      "outputs": [
        {
          "internalType": "address",
          "name": "",
          "type": "address"
        }
      ],
      "stateMutability": "view",
      "type": "function"
    },
    {
      "inputs": [
        {
          "internalType": "uint256",
          "name": "id",
          "type": "uint256"
        }
      ],
      "name": "ownerOf",
      "outputs": [
        {
          "internalType": "address",
          "name": "owner",
          "type": "address"
        }
      ],
      "stateMutability": "view",
      "type": "function"
    },
    {
      "inputs": [],
      "name": "renderer",
      "outputs": [
        {
          "internalType": "address",
          "name": "",
          "type": "address"
        }
      ],
      "stateMutability": "view",
      "type": "function"
    },
    {
      "inputs": [],
      "name": "renounceOwnership",
      "outputs": [],
      "stateMutability": "nonpayable",
      "type": "function"
    },
    {
      "inputs": [
        {
          "internalType": "uint256",
          "name": "tokenId",
          "type": "uint256"
        },
        {
          "internalType": "uint256",
          "name": "salePrice",
          "type": "uint256"
        }
      ],
      "name": "royaltyInfo",
      "outputs": [
        {
          "internalType": "address",
          "name": "receiver",
          "type": "address"
        },
        {
          "internalType": "uint256",
          "name": "royaltyAmount",
          "type": "uint256"
        }
      ],
      "stateMutability": "view",
      "type": "function"
    },
    {
      "inputs": [
        {
          "internalType": "address",
          "name": "from",
          "type": "address"
        },
        {
          "internalType": "address",
          "name": "to",
          "type": "address"
        },
        {
          "internalType": "uint256",
          "name": "id",
          "type": "uint256"
        }
      ],
      "name": "safeTransferFrom",
      "outputs": [],
      "stateMutability": "nonpayable",
      "type": "function"
    },
    {
      "inputs": [
        {
          "internalType": "address",
          "name": "from",
          "type": "address"
        },
        {
          "internalType": "address",
          "name": "to",
          "type": "address"
        },
        {
          "internalType": "uint256",
          "name": "id",
          "type": "uint256"
        },
        {
          "internalType": "bytes",
          "name": "data",
          "type": "bytes"
        }
      ],
      "name": "safeTransferFrom",
      "outputs": [],
      "stateMutability": "nonpayable",
      "type": "function"
    },
    {
      "inputs": [
        {
          "internalType": "address",
          "name": "renderer_",
          "type": "address"
        },
        {
          "internalType": "address",
          "name": "mintController_",
          "type": "address"
        }
      ],
      "name": "setAddresses",
      "outputs": [],
      "stateMutability": "nonpayable",
      "type": "function"
    },
    {
      "inputs": [
        {
          "internalType": "address",
          "name": "operator",
          "type": "address"
        },
        {
          "internalType": "bool",
          "name": "approved",
          "type": "bool"
        }
      ],
      "name": "setApprovalForAll",
      "outputs": [],
      "stateMutability": "nonpayable",
      "type": "function"
    },
    {
      "inputs": [
        {
          "internalType": "bytes4",
          "name": "interfaceId",
          "type": "bytes4"
        }
      ],
      "name": "supportsInterface",
      "outputs": [
        {
          "internalType": "bool",
          "name": "",
          "type": "bool"
        }
      ],
      "stateMutability": "view",
      "type": "function"
    },
    {
      "inputs": [],
      "name": "symbol",
      "outputs": [
        {
          "internalType": "string",
          "name": "",
          "type": "string"
        }
      ],
      "stateMutability": "view",
      "type": "function"
    },
    {
      "inputs": [
        {
          "internalType": "uint256",
          "name": "tokenId",
          "type": "uint256"
        }
      ],
      "name": "tokenURI",
      "outputs": [
        {
          "internalType": "string",
          "name": "",
          "type": "string"
        }
      ],
      "stateMutability": "view",
      "type": "function"
    },
    {
      "inputs": [
        {
          "internalType": "address",
          "name": "from",
          "type": "address"
        },
        {
          "internalType": "address",
          "name": "to",
          "type": "address"
        },
        {
          "internalType": "uint256",
          "name": "id",
          "type": "uint256"
        }
      ],
      "name": "transferFrom",
      "outputs": [],
      "stateMutability": "nonpayable",
      "type": "function"
    },
    {
      "inputs": [
        {
          "internalType": "address",
          "name": "newOwner",
          "type": "address"
        }
      ],
      "name": "transferOwnership",
      "outputs": [],
      "stateMutability": "nonpayable",
      "type": "function"
    },
    {
      "inputs": [],
      "name": "withdraw",
      "outputs": [],
      "stateMutability": "nonpayable",
      "type": "function"
    },
    {
      "inputs": [
        {
          "internalType": "contract IERC20",
          "name": "token",
          "type": "address"
        }
      ],
      "name": "withdrawTokens",
      "outputs": [],
      "stateMutability": "nonpayable",
      "type": "function"
    },
    {
      "stateMutability": "payable",
      "type": "receive"
    }
  ],
  "transactionHash": "0x39b47eed2a74a4d587453867eb890890583583db228de28f95ef26a7fa0a04d9",
  "args": [],
  "numDeployments": 1,
  "solcInputHash": "6c473bddb0a8ea2d420b95dde6519518",
  "bytecode": "0x60806040523480156200001157600080fd5b50604080518082018252600c81526b48697070792047686f73747360a01b60208083019182528351808501909452600584526411d213d4d560da1b9084015281519192916200006391600091620000f2565b50805162000079906001906020840190620000f2565b50505062000096620000906200009c60201b60201c565b620000a0565b620001d5565b3390565b600680546001600160a01b038381166001600160a01b0319831681179093556040519116919082907f8be0079c531659141344cd1fd0a4f28419497f9722a3daafe3b4186f6b6457e090600090a35050565b828054620001009062000198565b90600052602060002090601f0160209004810192826200012457600085556200016f565b82601f106200013f57805160ff19168380011785556200016f565b828001600101855582156200016f579182015b828111156200016f57825182559160200191906001019062000152565b506200017d92915062000181565b5090565b5b808211156200017d576000815560010162000182565b600181811c90821680620001ad57607f821691505b60208210811415620001cf57634e487b7160e01b600052602260045260246000fd5b50919050565b61175880620001e56000396000f3fe6080604052600436106101445760003560e01c806370a08231116100b657806395d89b411161006f57806395d89b41146103cc578063a22cb465146103e1578063b88d4fde14610401578063c87b56dd14610421578063e985e9c514610441578063f2fde38b1461047c57600080fd5b806370a082311461030b57806370ac1fa514610339578063715018a6146103595780638ada6b0f1461036e5780638da5cb5b1461038e57806390107afe146103ac57600080fd5b80632a55205a116101085780632a55205a146102375780633ccfd60b1461027657806340c10f191461028b57806342842e0e146102ab57806349df728c146102cb5780636352211e146102eb57600080fd5b806301ffc9a71461015057806306fdde0314610185578063081812fc146101a7578063095ea7b3146101f557806323b872dd1461021757600080fd5b3661014b57005b600080fd5b34801561015c57600080fd5b5061017061016b36600461123b565b61049c565b60405190151581526020015b60405180910390f35b34801561019157600080fd5b5061019a6104c7565b60405161017c91906112bb565b3480156101b357600080fd5b506101dd6101c23660046112ce565b6004602052600090815260409020546001600160a01b031681565b6040516001600160a01b03909116815260200161017c565b34801561020157600080fd5b506102156102103660046112fc565b610555565b005b34801561022357600080fd5b50610215610232366004611328565b61063c565b34801561024357600080fd5b50610257610252366004611369565b610803565b604080516001600160a01b03909316835260208301919091520161017c565b34801561028257600080fd5b50610215610896565b34801561029757600080fd5b506102156102a63660046112fc565b6108f3565b3480156102b757600080fd5b506102156102c6366004611328565b6109c6565b3480156102d757600080fd5b506102156102e636600461138b565b610abf565b3480156102f757600080fd5b506101dd6103063660046112ce565b610bc8565b34801561031757600080fd5b5061032b61032636600461138b565b610c1f565b60405190815260200161017c565b34801561034557600080fd5b506007546101dd906001600160a01b031681565b34801561036557600080fd5b50610215610c82565b34801561037a57600080fd5b506008546101dd906001600160a01b031681565b34801561039a57600080fd5b506006546001600160a01b03166101dd565b3480156103b857600080fd5b506102156103c73660046113a8565b610cb8565b3480156103d857600080fd5b5061019a610d3d565b3480156103ed57600080fd5b506102156103fc3660046113ef565b610d4a565b34801561040d57600080fd5b5061021561041c36600461141d565b610db6565b34801561042d57600080fd5b5061019a61043c3660046112ce565b610e9e565b34801561044d57600080fd5b5061017061045c3660046113a8565b600560209081526000928352604080842090915290825290205460ff1681565b34801561048857600080fd5b5061021561049736600461138b565b610f8e565b60006001600160e01b0319821663152a902d60e11b14806104c157506104c182611029565b92915050565b600080546104d4906114bc565b80601f0160208091040260200160405190810160405280929190818152602001828054610500906114bc565b801561054d5780601f106105225761010080835404028352916020019161054d565b820191906000526020600020905b81548152906001019060200180831161053057829003601f168201915b505050505081565b6000818152600260205260409020546001600160a01b03163381148061059e57506001600160a01b038116600090815260056020908152604080832033845290915290205460ff165b6105e05760405162461bcd60e51b815260206004820152600e60248201526d1393d517d055551213d49256915160921b60448201526064015b60405180910390fd5b60008281526004602052604080822080546001600160a01b0319166001600160a01b0387811691821790925591518593918516917f8c5be1e5ebec7d5bd14f71427d1e84f3dd0314c0f7b2291e5b200ac8c7c3b92591a4505050565b6000818152600260205260409020546001600160a01b038481169116146106925760405162461bcd60e51b815260206004820152600a60248201526957524f4e475f46524f4d60b01b60448201526064016105d7565b6001600160a01b0382166106dc5760405162461bcd60e51b81526020600482015260116024820152701253959053125117d49150d25412515395607a1b60448201526064016105d7565b336001600160a01b038416148061071657506001600160a01b038316600090815260056020908152604080832033845290915290205460ff165b8061073757506000818152600460205260409020546001600160a01b031633145b6107745760405162461bcd60e51b815260206004820152600e60248201526d1393d517d055551213d49256915160921b60448201526064016105d7565b6001600160a01b0380841660008181526003602090815260408083208054600019019055938616808352848320805460010190558583526002825284832080546001600160a01b03199081168317909155600490925284832080549092169091559251849392917fddf252ad1be2c89b69c2b068fc378daa952ba7f163c4a11628f55a4df523b3ef91a4505050565b60008281526002602052604081205481906001600160a01b03166108735760405162461bcd60e51b815260206004820152602160248201527f726f79616c7479496e666f20666f72206e6f6e6578697374656e7420746f6b656044820152603760f91b60648201526084016105d7565b3060646108818560056114f7565b61088b9190611524565b915091509250929050565b6006546001600160a01b031633146108c05760405162461bcd60e51b81526004016105d790611546565b6040514790339082156108fc029083906000818181858888f193505050501580156108ef573d6000803e3d6000fd5b5050565b6007546001600160a01b0316331461094d5760405162461bcd60e51b815260206004820152601d60248201527f63616c6c6572206973206e6f74206d696e7420636f6e74726f6c6c657200000060448201526064016105d7565b60018110158015610960575061270f8111155b6109ac5760405162461bcd60e51b815260206004820152601960248201527f496e636f727265637420746f6b656e496420746f206d696e740000000000000060448201526064016105d7565b6108ef828260405180602001604052806000815250611077565b6109d183838361063c565b6001600160a01b0382163b1580610a7b5750604051630a85bd0160e11b8082523360048301526001600160a01b03858116602484015260448301849052608060648401526000608484015290919084169063150b7a029060a4015b6020604051808303816000875af1158015610a4b573d6000803e3d6000fd5b505050506040513d601f19601f82011682018060405250810190610a6f919061157b565b6001600160e01b031916145b610aba5760405162461bcd60e51b815260206004820152601060248201526f155394d0519157d49150d2541251539560821b60448201526064016105d7565b505050565b6006546001600160a01b03163314610ae95760405162461bcd60e51b81526004016105d790611546565b6040516370a0823160e01b81523060048201526000906001600160a01b038316906370a0823190602401602060405180830381865afa158015610b30573d6000803e3d6000fd5b505050506040513d601f19601f82011682018060405250810190610b549190611598565b60405163a9059cbb60e01b8152336004820152602481018290529091506001600160a01b0383169063a9059cbb906044016020604051808303816000875af1158015610ba4573d6000803e3d6000fd5b505050506040513d601f19601f82011682018060405250810190610aba91906115b1565b6000818152600260205260409020546001600160a01b031680610c1a5760405162461bcd60e51b815260206004820152600a6024820152691393d517d3525395115160b21b60448201526064016105d7565b919050565b60006001600160a01b038216610c665760405162461bcd60e51b815260206004820152600c60248201526b5a45524f5f4144445245535360a01b60448201526064016105d7565b506001600160a01b031660009081526003602052604090205490565b6006546001600160a01b03163314610cac5760405162461bcd60e51b81526004016105d790611546565b610cb660006110c8565b565b6006546001600160a01b03163314610ce25760405162461bcd60e51b81526004016105d790611546565b6001600160a01b03821615610d0d57600880546001600160a01b0319166001600160a01b0384161790555b6001600160a01b038116156108ef57600780546001600160a01b0383166001600160a01b03199091161790555050565b600180546104d4906114bc565b3360008181526005602090815260408083206001600160a01b03871680855290835292819020805460ff191686151590811790915590519081529192917f17307eab39ab6107e8899845ad3d59bd9653f200f220920489ca2b5937696c31910160405180910390a35050565b610dc185858561063c565b6001600160a01b0384163b1580610e585750604051630a85bd0160e11b808252906001600160a01b0386169063150b7a0290610e099033908a908990899089906004016115ce565b6020604051808303816000875af1158015610e28573d6000803e3d6000fd5b505050506040513d601f19601f82011682018060405250810190610e4c919061157b565b6001600160e01b031916145b610e975760405162461bcd60e51b815260206004820152601060248201526f155394d0519157d49150d2541251539560821b60448201526064016105d7565b5050505050565b6000818152600260205260409020546060906001600160a01b0316610f1d5760405162461bcd60e51b815260206004820152602f60248201527f4552433732314d657461646174613a2055524920717565727920666f72206e6f60448201526e3732bc34b9ba32b73a103a37b5b2b760891b60648201526084016105d7565b60085460405163c87b56dd60e01b8152600481018490526001600160a01b039091169063c87b56dd90602401600060405180830381865afa158015610f66573d6000803e3d6000fd5b505050506040513d6000823e601f3d908101601f191682016040526104c19190810190611638565b6006546001600160a01b03163314610fb85760405162461bcd60e51b81526004016105d790611546565b6001600160a01b03811661101d5760405162461bcd60e51b815260206004820152602660248201527f4f776e61626c653a206e6577206f776e657220697320746865207a65726f206160448201526564647265737360d01b60648201526084016105d7565b611026816110c8565b50565b60006301ffc9a760e01b6001600160e01b03198316148061105a57506380ac58cd60e01b6001600160e01b03198316145b806104c15750506001600160e01b031916635b5e139f60e01b1490565b611081838361111a565b6001600160a01b0383163b1580610a7b5750604051630a85bd0160e11b808252906001600160a01b0385169063150b7a0290610a2c903390600090889088906004016116e5565b600680546001600160a01b038381166001600160a01b0319831681179093556040519116919082907f8be0079c531659141344cd1fd0a4f28419497f9722a3daafe3b4186f6b6457e090600090a35050565b6001600160a01b0382166111645760405162461bcd60e51b81526020600482015260116024820152701253959053125117d49150d25412515395607a1b60448201526064016105d7565b6000818152600260205260409020546001600160a01b0316156111ba5760405162461bcd60e51b815260206004820152600e60248201526d1053149150511657d3525395115160921b60448201526064016105d7565b6001600160a01b038216600081815260036020908152604080832080546001019055848352600290915280822080546001600160a01b0319168417905551839291907fddf252ad1be2c89b69c2b068fc378daa952ba7f163c4a11628f55a4df523b3ef908290a45050565b6001600160e01b03198116811461102657600080fd5b60006020828403121561124d57600080fd5b813561125881611225565b9392505050565b60005b8381101561127a578181015183820152602001611262565b83811115611289576000848401525b50505050565b600081518084526112a781602086016020860161125f565b601f01601f19169290920160200192915050565b602081526000611258602083018461128f565b6000602082840312156112e057600080fd5b5035919050565b6001600160a01b038116811461102657600080fd5b6000806040838503121561130f57600080fd5b823561131a816112e7565b946020939093013593505050565b60008060006060848603121561133d57600080fd5b8335611348816112e7565b92506020840135611358816112e7565b929592945050506040919091013590565b6000806040838503121561137c57600080fd5b50508035926020909101359150565b60006020828403121561139d57600080fd5b8135611258816112e7565b600080604083850312156113bb57600080fd5b82356113c6816112e7565b915060208301356113d6816112e7565b809150509250929050565b801515811461102657600080fd5b6000806040838503121561140257600080fd5b823561140d816112e7565b915060208301356113d6816113e1565b60008060008060006080868803121561143557600080fd5b8535611440816112e7565b94506020860135611450816112e7565b935060408601359250606086013567ffffffffffffffff8082111561147457600080fd5b818801915088601f83011261148857600080fd5b81358181111561149757600080fd5b8960208285010111156114a957600080fd5b9699959850939650602001949392505050565b600181811c908216806114d057607f821691505b602082108114156114f157634e487b7160e01b600052602260045260246000fd5b50919050565b600081600019048311821515161561151f57634e487b7160e01b600052601160045260246000fd5b500290565b60008261154157634e487b7160e01b600052601260045260246000fd5b500490565b6020808252818101527f4f776e61626c653a2063616c6c6572206973206e6f7420746865206f776e6572604082015260600190565b60006020828403121561158d57600080fd5b815161125881611225565b6000602082840312156115aa57600080fd5b5051919050565b6000602082840312156115c357600080fd5b8151611258816113e1565b6001600160a01b038681168252851660208201526040810184905260806060820181905281018290526000828460a0840137600060a0848401015260a0601f19601f85011683010190509695505050505050565b634e487b7160e01b600052604160045260246000fd5b60006020828403121561164a57600080fd5b815167ffffffffffffffff8082111561166257600080fd5b818401915084601f83011261167657600080fd5b81518181111561168857611688611622565b604051601f8201601f19908116603f011681019083821181831017156116b0576116b0611622565b816040528281528760208487010111156116c957600080fd5b6116da83602083016020880161125f565b979650505050505050565b6001600160a01b03858116825284166020820152604081018390526080606082018190526000906117189083018461128f565b969550505050505056fea2646970667358221220fb9bbda9a881306992036e3fd1f8899878089498cd6334f657ce7325acd36c8264736f6c634300080b0033",
  "devdoc": {
    "kind": "dev",
    "methods": {
      "owner()": {
        "details": "Returns the address of the current owner."
      },
      "renounceOwnership()": {
        "details": "Leaves the contract without owner. It will not be possible to call `onlyOwner` functions anymore. Can only be called by the current owner. NOTE: Renouncing ownership will leave the contract without an owner, thereby removing any functionality that is only available to the owner."
      },
      "royaltyInfo(uint256,uint256)": {
        "details": "See {IERC2981-royaltyInfo}."
      },
      "tokenURI(uint256)": {
        "details": "See {IERC721Metadata-tokenURI}."
      },
      "transferOwnership(address)": {
        "details": "Transfers ownership of the contract to a new account (`newOwner`). Can only be called by the current owner."
      }
    },
    "stateVariables": {
      "mintController": {
        "details": "mint logic"
      },
      "renderer": {
        "details": "renderer for {IERC721Metadata-tokenURI}"
      }
    },
    "version": 1
  },
  "userdoc": {
    "kind": "user",
    "methods": {},
    "version": 1
  },
  "storageLayout": {
    "storage": [
      {
        "astId": 877,
        "contract": "src/HippyGhosts.sol:HippyGhosts",
        "label": "name",
        "offset": 0,
        "slot": "0",
        "type": "t_string_storage"
      },
      {
        "astId": 879,
        "contract": "src/HippyGhosts.sol:HippyGhosts",
        "label": "symbol",
        "offset": 0,
        "slot": "1",
        "type": "t_string_storage"
      },
      {
        "astId": 890,
        "contract": "src/HippyGhosts.sol:HippyGhosts",
        "label": "_ownerOf",
        "offset": 0,
        "slot": "2",
        "type": "t_mapping(t_uint256,t_address)"
      },
      {
        "astId": 894,
        "contract": "src/HippyGhosts.sol:HippyGhosts",
        "label": "_balanceOf",
        "offset": 0,
        "slot": "3",
        "type": "t_mapping(t_address,t_uint256)"
      },
      {
        "astId": 943,
        "contract": "src/HippyGhosts.sol:HippyGhosts",
        "label": "getApproved",
        "offset": 0,
        "slot": "4",
        "type": "t_mapping(t_uint256,t_address)"
      },
      {
        "astId": 949,
        "contract": "src/HippyGhosts.sol:HippyGhosts",
        "label": "isApprovedForAll",
        "offset": 0,
        "slot": "5",
        "type": "t_mapping(t_address,t_mapping(t_address,t_bool))"
      },
      {
        "astId": 7,
        "contract": "src/HippyGhosts.sol:HippyGhosts",
        "label": "_owner",
        "offset": 0,
        "slot": "6",
        "type": "t_address"
      },
      {
        "astId": 1427,
        "contract": "src/HippyGhosts.sol:HippyGhosts",
        "label": "mintController",
        "offset": 0,
        "slot": "7",
        "type": "t_address"
      },
      {
        "astId": 1430,
        "contract": "src/HippyGhosts.sol:HippyGhosts",
        "label": "renderer",
        "offset": 0,
        "slot": "8",
        "type": "t_address"
      }
    ],
    "types": {
      "t_address": {
        "encoding": "inplace",
        "label": "address",
        "numberOfBytes": "20"
      },
      "t_bool": {
        "encoding": "inplace",
        "label": "bool",
        "numberOfBytes": "1"
      },
      "t_mapping(t_address,t_bool)": {
        "encoding": "mapping",
        "key": "t_address",
        "label": "mapping(address => bool)",
        "numberOfBytes": "32",
        "value": "t_bool"
      },
      "t_mapping(t_address,t_mapping(t_address,t_bool))": {
        "encoding": "mapping",
        "key": "t_address",
        "label": "mapping(address => mapping(address => bool))",
        "numberOfBytes": "32",
        "value": "t_mapping(t_address,t_bool)"
      },
      "t_mapping(t_address,t_uint256)": {
        "encoding": "mapping",
        "key": "t_address",
        "label": "mapping(address => uint256)",
        "numberOfBytes": "32",
        "value": "t_uint256"
      },
      "t_mapping(t_uint256,t_address)": {
        "encoding": "mapping",
        "key": "t_uint256",
        "label": "mapping(uint256 => address)",
        "numberOfBytes": "32",
        "value": "t_address"
      },
      "t_string_storage": {
        "encoding": "bytes",
        "label": "string",
        "numberOfBytes": "32"
      },
      "t_uint256": {
        "encoding": "inplace",
        "label": "uint256",
        "numberOfBytes": "32"
      }
    }
  }
}